{
  "_format": "hh-sol-artifact-1",
  "contractName": "Domains",
  "sourceName": "contracts/Domains.sol",
  "abi": [
    {
      "inputs": [],
      "stateMutability": "payable",
      "type": "constructor"
    },
    {
      "inputs": [],
      "name": "AlreadyRegistered",
      "type": "error"
    },
    {
      "inputs": [],
      "name": "NotEnoughEtherPaid",
      "type": "error"
    },
    {
      "inputs": [],
      "name": "NotOwner",
      "type": "error"
    },
    {
      "inputs": [],
      "name": "NotRegistered",
      "type": "error"
    },
    {
      "inputs": [],
      "name": "NotValidName",
      "type": "error"
    },
    {
      "inputs": [],
      "name": "WithdrawError",
      "type": "error"
    },
    {
      "anonymous": false,
      "inputs": [
        {
          "indexed": true,
          "internalType": "address",
          "name": "owner",
          "type": "address"
        },
        {
          "indexed": true,
          "internalType": "address",
          "name": "approved",
          "type": "address"
        },
        {
          "indexed": true,
          "internalType": "uint256",
          "name": "tokenId",
          "type": "uint256"
        }
      ],
      "name": "Approval",
      "type": "event"
    },
    {
      "anonymous": false,
      "inputs": [
        {
          "indexed": true,
          "internalType": "address",
          "name": "owner",
          "type": "address"
        },
        {
          "indexed": true,
          "internalType": "address",
          "name": "operator",
          "type": "address"
        },
        {
          "indexed": false,
          "internalType": "bool",
          "name": "approved",
          "type": "bool"
        }
      ],
      "name": "ApprovalForAll",
      "type": "event"
    },
    {
      "anonymous": false,
      "inputs": [
        {
          "indexed": true,
          "internalType": "address",
          "name": "previousOwner",
          "type": "address"
        },
        {
          "indexed": true,
          "internalType": "address",
          "name": "newOwner",
          "type": "address"
        }
      ],
      "name": "OwnershipTransferred",
      "type": "event"
    },
    {
      "anonymous": false,
      "inputs": [
        {
          "indexed": false,
          "internalType": "address",
          "name": "registrant",
          "type": "address"
        },
        {
          "indexed": true,
          "internalType": "string",
          "name": "domain",
          "type": "string"
        }
      ],
      "name": "Registered",
      "type": "event"
    },
    {
      "anonymous": false,
      "inputs": [
        {
          "indexed": true,
          "internalType": "address",
          "name": "from",
          "type": "address"
        },
        {
          "indexed": true,
          "internalType": "address",
          "name": "to",
          "type": "address"
        },
        {
          "indexed": true,
          "internalType": "uint256",
          "name": "tokenId",
          "type": "uint256"
        }
      ],
      "name": "Transfer",
      "type": "event"
    },
    {
      "inputs": [
        {
          "internalType": "address",
          "name": "to",
          "type": "address"
        },
        {
          "internalType": "uint256",
          "name": "tokenId",
          "type": "uint256"
        }
      ],
      "name": "approve",
      "outputs": [],
      "stateMutability": "nonpayable",
      "type": "function"
    },
    {
      "inputs": [
        {
          "internalType": "address",
          "name": "owner",
          "type": "address"
        }
      ],
      "name": "balanceOf",
      "outputs": [
        {
          "internalType": "uint256",
          "name": "",
          "type": "uint256"
        }
      ],
      "stateMutability": "view",
      "type": "function"
    },
    {
      "inputs": [],
      "name": "domainLengthPriceUpperBound",
      "outputs": [
        {
          "internalType": "uint256",
          "name": "",
          "type": "uint256"
        }
      ],
      "stateMutability": "view",
      "type": "function"
    },
    {
      "inputs": [],
      "name": "getAllDomains",
      "outputs": [
        {
          "internalType": "string[]",
          "name": "",
          "type": "string[]"
        }
      ],
      "stateMutability": "view",
      "type": "function"
    },
    {
      "inputs": [
        {
          "internalType": "uint256",
          "name": "tokenId",
          "type": "uint256"
        }
      ],
      "name": "getApproved",
      "outputs": [
        {
          "internalType": "address",
          "name": "",
          "type": "address"
        }
      ],
      "stateMutability": "view",
      "type": "function"
    },
    {
      "inputs": [
        {
          "internalType": "string",
          "name": "domainName",
          "type": "string"
        }
      ],
      "name": "getDomainData",
      "outputs": [
        {
          "components": [
            {
              "internalType": "address",
              "name": "owner",
              "type": "address"
            },
            {
              "internalType": "string",
              "name": "data",
              "type": "string"
            }
          ],
          "internalType": "struct Domains.Domain",
          "name": "",
          "type": "tuple"
        }
      ],
      "stateMutability": "view",
      "type": "function"
    },
    {
      "inputs": [
        {
          "internalType": "address",
          "name": "owner",
          "type": "address"
        }
      ],
      "name": "getOwnedDomains",
      "outputs": [
        {
          "components": [
            {
              "internalType": "string",
              "name": "name",
              "type": "string"
            },
            {
              "internalType": "address",
              "name": "owner",
              "type": "address"
            },
            {
              "internalType": "string",
              "name": "data",
              "type": "string"
            },
            {
              "internalType": "string",
              "name": "uri",
              "type": "string"
            }
          ],
          "internalType": "struct Domains.DomainComplete[]",
          "name": "",
          "type": "tuple[]"
        }
      ],
      "stateMutability": "view",
      "type": "function"
    },
    {
      "inputs": [
        {
          "internalType": "string",
          "name": "domainName",
          "type": "string"
        }
      ],
      "name": "getPrice",
      "outputs": [
        {
          "internalType": "uint256",
          "name": "",
          "type": "uint256"
        }
      ],
      "stateMutability": "view",
      "type": "function"
    },
    {
      "inputs": [
        {
          "internalType": "address",
          "name": "owner",
          "type": "address"
        },
        {
          "internalType": "address",
          "name": "operator",
          "type": "address"
        }
      ],
      "name": "isApprovedForAll",
      "outputs": [
        {
          "internalType": "bool",
          "name": "",
          "type": "bool"
        }
      ],
      "stateMutability": "view",
      "type": "function"
    },
    {
      "inputs": [],
      "name": "maxDomainLength",
      "outputs": [
        {
          "internalType": "uint256",
          "name": "",
          "type": "uint256"
        }
      ],
      "stateMutability": "view",
      "type": "function"
    },
    {
      "inputs": [],
      "name": "minDomainLength",
      "outputs": [
        {
          "internalType": "uint256",
          "name": "",
          "type": "uint256"
        }
      ],
      "stateMutability": "view",
      "type": "function"
    },
    {
      "inputs": [
        {
          "internalType": "string",
          "name": "domainName",
          "type": "string"
        },
        {
          "internalType": "string",
          "name": "data",
          "type": "string"
        }
      ],
      "name": "modifyData",
      "outputs": [],
      "stateMutability": "nonpayable",
      "type": "function"
    },
    {
      "inputs": [],
      "name": "name",
      "outputs": [
        {
          "internalType": "string",
          "name": "",
          "type": "string"
        }
      ],
      "stateMutability": "view",
      "type": "function"
    },
    {
      "inputs": [],
      "name": "owner",
      "outputs": [
        {
          "internalType": "address",
          "name": "",
          "type": "address"
        }
      ],
      "stateMutability": "view",
      "type": "function"
    },
    {
      "inputs": [
        {
          "internalType": "uint256",
          "name": "tokenId",
          "type": "uint256"
        }
      ],
      "name": "ownerOf",
      "outputs": [
        {
          "internalType": "address",
          "name": "",
          "type": "address"
        }
      ],
      "stateMutability": "view",
      "type": "function"
    },
    {
      "inputs": [],
      "name": "priceUnits",
      "outputs": [
        {
          "internalType": "uint256",
          "name": "",
          "type": "uint256"
        }
      ],
      "stateMutability": "view",
      "type": "function"
    },
    {
      "inputs": [
        {
          "internalType": "string",
          "name": "domainName",
          "type": "string"
        },
        {
          "internalType": "string",
          "name": "data",
          "type": "string"
        }
      ],
      "name": "register",
      "outputs": [],
      "stateMutability": "payable",
      "type": "function"
    },
    {
      "inputs": [],
      "name": "renounceOwnership",
      "outputs": [],
      "stateMutability": "nonpayable",
      "type": "function"
    },
    {
      "inputs": [
        {
          "internalType": "address",
          "name": "from",
          "type": "address"
        },
        {
          "internalType": "address",
          "name": "to",
          "type": "address"
        },
        {
          "internalType": "uint256",
          "name": "tokenId",
          "type": "uint256"
        }
      ],
      "name": "safeTransferFrom",
      "outputs": [],
      "stateMutability": "nonpayable",
      "type": "function"
    },
    {
      "inputs": [
        {
          "internalType": "address",
          "name": "from",
          "type": "address"
        },
        {
          "internalType": "address",
          "name": "to",
          "type": "address"
        },
        {
          "internalType": "uint256",
          "name": "tokenId",
          "type": "uint256"
        },
        {
          "internalType": "bytes",
          "name": "data",
          "type": "bytes"
        }
      ],
      "name": "safeTransferFrom",
      "outputs": [],
      "stateMutability": "nonpayable",
      "type": "function"
    },
    {
      "inputs": [
        {
          "internalType": "address",
          "name": "operator",
          "type": "address"
        },
        {
          "internalType": "bool",
          "name": "approved",
          "type": "bool"
        }
      ],
      "name": "setApprovalForAll",
      "outputs": [],
      "stateMutability": "nonpayable",
      "type": "function"
    },
    {
      "inputs": [
        {
          "internalType": "bytes4",
          "name": "interfaceId",
          "type": "bytes4"
        }
      ],
      "name": "supportsInterface",
      "outputs": [
        {
          "internalType": "bool",
          "name": "",
          "type": "bool"
        }
      ],
      "stateMutability": "view",
      "type": "function"
    },
    {
      "inputs": [],
      "name": "symbol",
      "outputs": [
        {
          "internalType": "string",
          "name": "",
          "type": "string"
        }
      ],
      "stateMutability": "view",
      "type": "function"
    },
    {
      "inputs": [],
      "name": "tld",
      "outputs": [
        {
          "internalType": "string",
          "name": "",
          "type": "string"
        }
      ],
      "stateMutability": "view",
      "type": "function"
    },
    {
      "inputs": [
        {
          "internalType": "uint256",
          "name": "tokenId",
          "type": "uint256"
        }
      ],
      "name": "tokenURI",
      "outputs": [
        {
          "internalType": "string",
          "name": "",
          "type": "string"
        }
      ],
      "stateMutability": "view",
      "type": "function"
    },
    {
      "inputs": [
        {
          "internalType": "address",
          "name": "from",
          "type": "address"
        },
        {
          "internalType": "address",
          "name": "to",
          "type": "address"
        },
        {
          "internalType": "uint256",
          "name": "tokenId",
          "type": "uint256"
        }
      ],
      "name": "transferFrom",
      "outputs": [],
      "stateMutability": "nonpayable",
      "type": "function"
    },
    {
      "inputs": [
        {
          "internalType": "address",
          "name": "newOwner",
          "type": "address"
        }
      ],
      "name": "transferOwnership",
      "outputs": [],
      "stateMutability": "nonpayable",
      "type": "function"
    },
    {
      "inputs": [],
      "name": "withdraw",
      "outputs": [],
      "stateMutability": "nonpayable",
      "type": "function"
    }
  ],
  "bytecode": "0x60c060405260066080908152652e6d6174696360d01b60a0526008906200002790826200022d565b50600b6009556014600a556000600b556011600c55604051806108a0016040528061086b81526020016200326261086b9139600d906200006890826200022d565b5060408051808201909152600d81526c1e17ba32bc3a1f1e17b9bb339f60991b6020820152600e906200009c90826200022d565b506040518060400160405280601481526020017f506f6c79676f6e204e616d65205365727669636500000000000000000000000081525060405180604001604052806003815260200162504e5360e81b81525081600090816200010091906200022d565b5060016200010f82826200022d565b5050506200012c620001266200013260201b60201c565b62000136565b620002f9565b3390565b600780546001600160a01b038381166001600160a01b0319831681179093556040519116919082907f8be0079c531659141344cd1fd0a4f28419497f9722a3daafe3b4186f6b6457e090600090a35050565b634e487b7160e01b600052604160045260246000fd5b600181811c90821680620001b357607f821691505b602082108103620001d457634e487b7160e01b600052602260045260246000fd5b50919050565b601f8211156200022857600081815260208120601f850160051c81016020861015620002035750805b601f850160051c820191505b8181101562000224578281556001016200020f565b5050505b505050565b81516001600160401b0381111562000249576200024962000188565b62000261816200025a84546200019e565b84620001da565b602080601f831160018114620002995760008415620002805750858301515b600019600386901b1c1916600185901b17855562000224565b600085815260208120601f198616915b82811015620002ca57888601518255948401946001909101908401620002a9565b5085821015620002e95787850151600019600388901b60f8161c191681555b5050505050600190811b01905550565b612f5980620003096000396000f3fe6080604052600436106101b75760003560e01c80636352211e116100ec57806395d89b411161008a578063b88d4fde11610064578063b88d4fde146104b4578063c87b56dd146104d4578063e985e9c5146104f4578063f2fde38b1461053d57600080fd5b806395d89b411461045f578063a198016914610474578063a22cb4651461049457600080fd5b80637afdfb4f116100c65780637afdfb4f146103e857806381efe0e5146104155780638b9d8e581461042b5780638da5cb5b1461044157600080fd5b80636352211e1461039357806370a08231146103b3578063715018a6146103d357600080fd5b806323b872dd116101595780633ffbd47f116101335780633ffbd47f1461031e57806342842e0e14610331578063524f3889146103515780635a018e6a1461037157600080fd5b806323b872dd146102d45780632d551432146102f45780633ccfd60b1461030957600080fd5b8063081812fc11610195578063081812fc14610237578063095ea7b31461026f5780631a3f4eab146102915780631a6c821b146102a757600080fd5b806301ffc9a7146101bc57806306279d72146101f157806306fdde0314610215575b600080fd5b3480156101c857600080fd5b506101dc6101d7366004612358565b61055d565b60405190151581526020015b60405180910390f35b3480156101fd57600080fd5b50610207600c5481565b6040519081526020016101e8565b34801561022157600080fd5b5061022a6105fa565b6040516101e891906123c5565b34801561024357600080fd5b506102576102523660046123d8565b61068c565b6040516001600160a01b0390911681526020016101e8565b34801561027b57600080fd5b5061028f61028a36600461240d565b6106b3565b005b34801561029d57600080fd5b5061020760095481565b3480156102b357600080fd5b506102c76102c2366004612437565b6107e9565b6040516101e89190612452565b3480156102e057600080fd5b5061028f6102ef366004612507565b610a9a565b34801561030057600080fd5b5061022a610b21565b34801561031557600080fd5b5061028f610baf565b61028f61032c36600461258c565b610c3f565b34801561033d57600080fd5b5061028f61034c366004612507565b610ea1565b34801561035d57600080fd5b5061020761036c3660046125f8565b610ebc565b34801561037d57600080fd5b50610386610f41565b6040516101e8919061263a565b34801561039f57600080fd5b506102576103ae3660046123d8565b61107a565b3480156103bf57600080fd5b506102076103ce366004612437565b6110df565b3480156103df57600080fd5b5061028f611179565b3480156103f457600080fd5b506104086104033660046125f8565b61118d565b6040516101e8919061269c565b34801561042157600080fd5b50610207600b5481565b34801561043757600080fd5b50610207600a5481565b34801561044d57600080fd5b506007546001600160a01b0316610257565b34801561046b57600080fd5b5061022a611276565b34801561048057600080fd5b5061028f61048f36600461258c565b611285565b3480156104a057600080fd5b5061028f6104af3660046126ca565b61133e565b3480156104c057600080fd5b5061028f6104cf36600461271c565b611349565b3480156104e057600080fd5b5061022a6104ef3660046123d8565b6113d7565b34801561050057600080fd5b506101dc61050f3660046127f8565b6001600160a01b03918216600090815260056020908152604080832093909416825291909152205460ff1690565b34801561054957600080fd5b5061028f610558366004612437565b6114e7565b60006001600160e01b031982167f80ac58cd0000000000000000000000000000000000000000000000000000000014806105c057506001600160e01b031982167f5b5e139f00000000000000000000000000000000000000000000000000000000145b806105f457507f01ffc9a7000000000000000000000000000000000000000000000000000000006001600160e01b03198316145b92915050565b6060600080546106099061282b565b80601f01602080910402602001604051908101604052809291908181526020018280546106359061282b565b80156106825780601f1061065757610100808354040283529160200191610682565b820191906000526020600020905b81548152906001019060200180831161066557829003601f168201915b5050505050905090565b600061069782611577565b506000908152600460205260409020546001600160a01b031690565b60006106be8261107a565b9050806001600160a01b0316836001600160a01b03160361074c5760405162461bcd60e51b815260206004820152602160248201527f4552433732313a20617070726f76616c20746f2063757272656e74206f776e6560448201527f720000000000000000000000000000000000000000000000000000000000000060648201526084015b60405180910390fd5b336001600160a01b03821614806107685750610768813361050f565b6107da5760405162461bcd60e51b815260206004820152603e60248201527f4552433732313a20617070726f76652063616c6c6572206973206e6f7420746f60448201527f6b656e206f776e6572206e6f7220617070726f76656420666f7220616c6c00006064820152608401610743565b6107e483836115db565b505050565b606060006107f6836110df565b90506000808267ffffffffffffffff81111561081457610814612706565b60405190808252806020026020018201604052801561087957816020015b61086660405180608001604052806060815260200160006001600160a01b0316815260200160608152602001606081525090565b8152602001906001900390816108325790505b5090506000610887600f5490565b905060005b81811015610a8f57600081815260116020526040812080546108ad9061282b565b80601f01602080910402602001604051908101604052809291908181526020018280546108d99061282b565b80156109265780601f106108fb57610100808354040283529160200191610926565b820191906000526020600020905b81548152906001019060200180831161090957829003601f168201915b50505050509050600060108260405161093f9190612865565b90815260408051918290036020908101832083830190925281546001600160a01b03168352600182018054918401916109779061282b565b80601f01602080910402602001604051908101604052809291908181526020018280546109a39061282b565b80156109f05780601f106109c5576101008083540402835291602001916109f0565b820191906000526020600020905b8154815290600101906020018083116109d357829003601f168201915b5050505050815250509050886001600160a01b031681600001516001600160a01b031603610a7a57604051806080016040528083815260200182600001516001600160a01b0316815260200182602001518152602001610a4f856113d7565b90528587610a5c81612897565b985081518110610a6e57610a6e6128b0565b60200260200101819052505b50508080610a8790612897565b91505061088c565b509095945050505050565b610aa43382611649565b610b165760405162461bcd60e51b815260206004820152602e60248201527f4552433732313a2063616c6c6572206973206e6f7420746f6b656e206f776e6560448201527f72206e6f7220617070726f7665640000000000000000000000000000000000006064820152608401610743565b6107e48383836116c7565b60088054610b2e9061282b565b80601f0160208091040260200160405190810160405280929190818152602001828054610b5a9061282b565b8015610ba75780601f10610b7c57610100808354040283529160200191610ba7565b820191906000526020600020905b815481529060010190602001808311610b8a57829003601f168201915b505050505081565b610bb761189a565b6040514790600090339083908381818185875af1925050503d8060008114610bfb576040519150601f19603f3d011682016040523d82523d6000602084013e610c00565b606091505b5050905080610c3b576040517fd477157400000000000000000000000000000000000000000000000000000000815260040160405180910390fd5b5050565b610c4984846118f4565b15610c80576040517f3a81d6fc00000000000000000000000000000000000000000000000000000000815260040160405180910390fd5b610c8a8484611935565b610cc0576040517f1d56ca0a00000000000000000000000000000000000000000000000000000000815260040160405180910390fd5b610cca8484610ebc565b3414610d02576040517fbf2b707300000000000000000000000000000000000000000000000000000000815260040160405180910390fd5b60006040518060400160405280336001600160a01b0316815260200184848080601f01602080910402602001604051908101604052809392919081815260200183838082843760009201919091525050509152506040519091508190601090610d6e90889088906128c6565b90815260405160209181900382019020825181546001600160a01b0319166001600160a01b03909116178155908201516001820190610dad9082612924565b5050600f546000818152601160205260409020909150610dce8688836129e4565b50610ddd600f80546001019055565b610de73382611991565b600086866008604051602001610dff93929190612b17565b60405160208183030381529060405290506000600d82600e604051602001610e2993929190612b38565b6040516020818303038152906040529050610e4d83610e488484611a18565b611a85565b8787604051610e5d9291906128c6565b604051908190038120338252907fb3eccf73f39b1c07947c780b2b39df2a1bb058b4037b0a42d0881ca1a028a1329060200160405180910390a25050505050505050565b6107e483838360405180602001604052806000815250611349565b600080610efe84848080601f016020809104026020016040519081016040528093929190818152602001838380828437600092019190915250611b2792505050565b6009549091508190811115610f1257506009545b600c54610f2090600a612c4f565b81600954610f2e9190612c5b565b610f389190612c6e565b95945050505050565b60606000610f4e600f5490565b905060008167ffffffffffffffff811115610f6b57610f6b612706565b604051908082528060200260200182016040528015610f9e57816020015b6060815260200190600190039081610f895790505b50905060005b828110156110735760008181526011602052604090208054610fc59061282b565b80601f0160208091040260200160405190810160405280929190818152602001828054610ff19061282b565b801561103e5780601f106110135761010080835404028352916020019161103e565b820191906000526020600020905b81548152906001019060200180831161102157829003601f168201915b5050505050828281518110611055576110556128b0565b6020026020010181905250808061106b90612897565b915050610fa4565b5092915050565b6000818152600260205260408120546001600160a01b0316806105f45760405162461bcd60e51b815260206004820152601860248201527f4552433732313a20696e76616c696420746f6b656e20494400000000000000006044820152606401610743565b60006001600160a01b03821661115d5760405162461bcd60e51b815260206004820152602960248201527f4552433732313a2061646472657373207a65726f206973206e6f74206120766160448201527f6c6964206f776e657200000000000000000000000000000000000000000000006064820152608401610743565b506001600160a01b031660009081526003602052604090205490565b61118161189a565b61118b6000611cb6565b565b604080518082019091526000815260606020820152601083836040516111b49291906128c6565b90815260408051918290036020908101832083830190925281546001600160a01b03168352600182018054918401916111ec9061282b565b80601f01602080910402602001604051908101604052809291908181526020018280546112189061282b565b80156112655780601f1061123a57610100808354040283529160200191611265565b820191906000526020600020905b81548152906001019060200180831161124857829003601f168201915b505050505081525050905092915050565b6060600180546106099061282b565b61128f84846118f4565b6112c5576040517faba4733900000000000000000000000000000000000000000000000000000000815260040160405180910390fd5b6112cf8484611d08565b611305576040517f30cd747100000000000000000000000000000000000000000000000000000000815260040160405180910390fd5b8181601086866040516113199291906128c6565b908152602001604051809103902060010191826113379291906129e4565b5050505050565b610c3b338383611d41565b6113533383611649565b6113c55760405162461bcd60e51b815260206004820152602e60248201527f4552433732313a2063616c6c6572206973206e6f7420746f6b656e206f776e6560448201527f72206e6f7220617070726f7665640000000000000000000000000000000000006064820152608401610743565b6113d184848484611e0f565b50505050565b60606113e282611577565b600082815260066020526040812080546113fb9061282b565b80601f01602080910402602001604051908101604052809291908181526020018280546114279061282b565b80156114745780601f1061144957610100808354040283529160200191611474565b820191906000526020600020905b81548152906001019060200180831161145757829003601f168201915b50505050509050600061149260408051602081019091526000815290565b905080516000036114a4575092915050565b8151156114d65780826040516020016114be929190612c8d565b60405160208183030381529060405292505050919050565b6114df84611e98565b949350505050565b6114ef61189a565b6001600160a01b03811661156b5760405162461bcd60e51b815260206004820152602660248201527f4f776e61626c653a206e6577206f776e657220697320746865207a65726f206160448201527f64647265737300000000000000000000000000000000000000000000000000006064820152608401610743565b61157481611cb6565b50565b6000818152600260205260409020546001600160a01b03166115745760405162461bcd60e51b815260206004820152601860248201527f4552433732313a20696e76616c696420746f6b656e20494400000000000000006044820152606401610743565b600081815260046020526040902080546001600160a01b0319166001600160a01b03841690811790915581906116108261107a565b6001600160a01b03167f8c5be1e5ebec7d5bd14f71427d1e84f3dd0314c0f7b2291e5b200ac8c7c3b92560405160405180910390a45050565b6000806116558361107a565b9050806001600160a01b0316846001600160a01b0316148061169c57506001600160a01b0380821660009081526005602090815260408083209388168352929052205460ff165b806114df5750836001600160a01b03166116b58461068c565b6001600160a01b031614949350505050565b826001600160a01b03166116da8261107a565b6001600160a01b0316146117565760405162461bcd60e51b815260206004820152602560248201527f4552433732313a207472616e736665722066726f6d20696e636f72726563742060448201527f6f776e65720000000000000000000000000000000000000000000000000000006064820152608401610743565b6001600160a01b0382166117d15760405162461bcd60e51b8152602060048201526024808201527f4552433732313a207472616e7366657220746f20746865207a65726f2061646460448201527f72657373000000000000000000000000000000000000000000000000000000006064820152608401610743565b6117dc6000826115db565b6001600160a01b0383166000908152600360205260408120805460019290611805908490612c5b565b90915550506001600160a01b0382166000908152600360205260408120805460019290611833908490612cbc565b909155505060008181526002602052604080822080546001600160a01b0319166001600160a01b0386811691821790925591518493918716917fddf252ad1be2c89b69c2b068fc378daa952ba7f163c4a11628f55a4df523b3ef91a46107e4838383611f0c565b6007546001600160a01b0316331461118b5760405162461bcd60e51b815260206004820181905260248201527f4f776e61626c653a2063616c6c6572206973206e6f7420746865206f776e65726044820152606401610743565b6000806001600160a01b0316601084846040516119129291906128c6565b908152604051908190036020019020546001600160a01b03161415905092915050565b60008061197784848080601f016020809104026020016040519081016040528093929190818152602001838380828437600092019190915250611b2792505050565b9050600b54811180156114df5750600a5410159392505050565b6001600160a01b03821660009081526003602052604081208054600192906119ba908490612cbc565b909155505060008181526002602052604080822080546001600160a01b0319166001600160a01b03861690811790915590518392907fddf252ad1be2c89b69c2b068fc378daa952ba7f163c4a11628f55a4df523b3ef908290a45050565b6060611a5e83611a2784611f63565b611a38611a3387611b27565b6120b6565b604051602001611a4a93929190612ccf565b604051602081830303815290604052611f63565b604051602001611a6e9190612e05565b604051602081830303815290604052905092915050565b6000828152600260205260409020546001600160a01b0316611b0f5760405162461bcd60e51b815260206004820152602e60248201527f45524337323155524953746f726167653a2055524920736574206f66206e6f6e60448201527f6578697374656e7420746f6b656e0000000000000000000000000000000000006064820152608401610743565b60008281526006602052604090206107e48282612924565b8051600090819081905b80821015611cad576000858381518110611b4d57611b4d6128b0565b01602001516001600160f81b03191690507f8000000000000000000000000000000000000000000000000000000000000000811015611b9857611b91600184612cbc565b9250611c9a565b7fe0000000000000000000000000000000000000000000000000000000000000006001600160f81b031982161015611bd557611b91600284612cbc565b7ff0000000000000000000000000000000000000000000000000000000000000006001600160f81b031982161015611c1257611b91600384612cbc565b7ff8000000000000000000000000000000000000000000000000000000000000006001600160f81b031982161015611c4f57611b91600484612cbc565b7ffc000000000000000000000000000000000000000000000000000000000000006001600160f81b031982161015611c8c57611b91600584612cbc565b611c97600684612cbc565b92505b5082611ca581612897565b935050611b31565b50909392505050565b600780546001600160a01b038381166001600160a01b0319831681179093556040519116919082907f8be0079c531659141344cd1fd0a4f28419497f9722a3daafe3b4186f6b6457e090600090a35050565b600060108383604051611d1c9291906128c6565b90815260405190819003602001902054336001600160a01b0390911614905092915050565b816001600160a01b0316836001600160a01b031603611da25760405162461bcd60e51b815260206004820152601960248201527f4552433732313a20617070726f766520746f2063616c6c6572000000000000006044820152606401610743565b6001600160a01b03838116600081815260056020908152604080832094871680845294825291829020805460ff191686151590811790915591519182527f17307eab39ab6107e8899845ad3d59bd9653f200f220920489ca2b5937696c31910160405180910390a3505050565b611e1a8484846116c7565b611e26848484846121eb565b6113d15760405162461bcd60e51b815260206004820152603260248201527f4552433732313a207472616e7366657220746f206e6f6e20455243373231526560448201527f63656976657220696d706c656d656e74657200000000000000000000000000006064820152608401610743565b6060611ea382611577565b6000611eba60408051602081019091526000815290565b90506000815111611eda5760405180602001604052806000815250611f05565b80611ee4846120b6565b604051602001611ef5929190612c8d565b6040516020818303038152906040525b9392505050565b81601060116000848152602001908152602001600020604051611f2f9190612e4a565b90815260405190819003602001902080546001600160a01b03929092166001600160a01b0319909216919091179055505050565b60608151600003611f8257505060408051602081019091526000815290565b6000604051806060016040528060408152602001612ee46040913990506000600384516002611fb19190612cbc565b611fbb9190612e6c565b611fc6906004612c6e565b67ffffffffffffffff811115611fde57611fde612706565b6040519080825280601f01601f191660200182016040528015612008576020820181803683370190505b509050600182016020820185865187015b80821015612074576003820191508151603f8160121c168501518453600184019350603f81600c1c168501518453600184019350603f8160061c168501518453600184019350603f8116850151845350600183019250612019565b505060038651066001811461209057600281146120a3576120ab565b603d6001830353603d60028303536120ab565b603d60018303535b509195945050505050565b6060816000036120f957505060408051808201909152600181527f3000000000000000000000000000000000000000000000000000000000000000602082015290565b8160005b8115612123578061210d81612897565b915061211c9050600a83612e6c565b91506120fd565b60008167ffffffffffffffff81111561213e5761213e612706565b6040519080825280601f01601f191660200182016040528015612168576020820181803683370190505b5090505b84156114df5761217d600183612c5b565b915061218a600a86612e80565b612195906030612cbc565b60f81b8183815181106121aa576121aa6128b0565b60200101907effffffffffffffffffffffffffffffffffffffffffffffffffffffffffffff1916908160001a9053506121e4600a86612e6c565b945061216c565b60006001600160a01b0384163b1561233757604051630a85bd0160e11b81526001600160a01b0385169063150b7a029061222f903390899088908890600401612e94565b6020604051808303816000875af192505050801561226a575060408051601f3d908101601f1916820190925261226791810190612ec6565b60015b61231d573d808015612298576040519150601f19603f3d011682016040523d82523d6000602084013e61229d565b606091505b5080516000036123155760405162461bcd60e51b815260206004820152603260248201527f4552433732313a207472616e7366657220746f206e6f6e20455243373231526560448201527f63656976657220696d706c656d656e74657200000000000000000000000000006064820152608401610743565b805181602001fd5b6001600160e01b031916630a85bd0160e11b1490506114df565b506001949350505050565b6001600160e01b03198116811461157457600080fd5b60006020828403121561236a57600080fd5b8135611f0581612342565b60005b83811015612390578181015183820152602001612378565b50506000910152565b600081518084526123b1816020860160208601612375565b601f01601f19169290920160200192915050565b602081526000611f056020830184612399565b6000602082840312156123ea57600080fd5b5035919050565b80356001600160a01b038116811461240857600080fd5b919050565b6000806040838503121561242057600080fd5b612429836123f1565b946020939093013593505050565b60006020828403121561244957600080fd5b611f05826123f1565b60006020808301818452808551808352604092508286019150828160051b87010184880160005b838110156124f957603f1989840301855281516080815181865261249f82870182612399565b9150506001600160a01b0389830151168986015287820151858203898701526124c88282612399565b915050606080830151925085820381870152506124e58183612399565b968901969450505090860190600101612479565b509098975050505050505050565b60008060006060848603121561251c57600080fd5b612525846123f1565b9250612533602085016123f1565b9150604084013590509250925092565b60008083601f84011261255557600080fd5b50813567ffffffffffffffff81111561256d57600080fd5b60208301915083602082850101111561258557600080fd5b9250929050565b600080600080604085870312156125a257600080fd5b843567ffffffffffffffff808211156125ba57600080fd5b6125c688838901612543565b909650945060208701359150808211156125df57600080fd5b506125ec87828801612543565b95989497509550505050565b6000806020838503121561260b57600080fd5b823567ffffffffffffffff81111561262257600080fd5b61262e85828601612543565b90969095509350505050565b6000602080830181845280855180835260408601915060408160051b870101925083870160005b8281101561268f57603f1988860301845261267d858351612399565b94509285019290850190600101612661565b5092979650505050505050565b602081526001600160a01b038251166020820152600060208301516040808401526114df6060840182612399565b600080604083850312156126dd57600080fd5b6126e6836123f1565b9150602083013580151581146126fb57600080fd5b809150509250929050565b634e487b7160e01b600052604160045260246000fd5b6000806000806080858703121561273257600080fd5b61273b856123f1565b9350612749602086016123f1565b925060408501359150606085013567ffffffffffffffff8082111561276d57600080fd5b818701915087601f83011261278157600080fd5b81358181111561279357612793612706565b604051601f8201601f19908116603f011681019083821181831017156127bb576127bb612706565b816040528281528a60208487010111156127d457600080fd5b82602086016020830137600060208483010152809550505050505092959194509250565b6000806040838503121561280b57600080fd5b612814836123f1565b9150612822602084016123f1565b90509250929050565b600181811c9082168061283f57607f821691505b60208210810361285f57634e487b7160e01b600052602260045260246000fd5b50919050565b60008251612877818460208701612375565b9190910192915050565b634e487b7160e01b600052601160045260246000fd5b6000600182016128a9576128a9612881565b5060010190565b634e487b7160e01b600052603260045260246000fd5b8183823760009101908152919050565b601f8211156107e457600081815260208120601f850160051c810160208610156128fd5750805b601f850160051c820191505b8181101561291c57828155600101612909565b505050505050565b815167ffffffffffffffff81111561293e5761293e612706565b6129528161294c845461282b565b846128d6565b602080601f831160018114612987576000841561296f5750858301515b600019600386901b1c1916600185901b17855561291c565b600085815260208120601f198616915b828110156129b657888601518255948401946001909101908401612997565b50858210156129d45787850151600019600388901b60f8161c191681555b5050505050600190811b01905550565b67ffffffffffffffff8311156129fc576129fc612706565b612a1083612a0a835461282b565b836128d6565b6000601f841160018114612a445760008515612a2c5750838201355b600019600387901b1c1916600186901b178355611337565b600083815260209020601f19861690835b82811015612a755786850135825560209485019460019092019101612a55565b5086821015612a925760001960f88860031b161c19848701351681555b505060018560011b0183555050505050565b60008154612ab18161282b565b60018281168015612ac95760018114612ade57612b0d565b60ff1984168752821515830287019450612b0d565b8560005260208060002060005b85811015612b045781548a820152908401908201612aeb565b50505082870194505b5050505092915050565b82848237600083820160008152612b2e8185612aa4565b9695505050505050565b6000612b448286612aa4565b8451612b54818360208901612375565b612b6081830186612aa4565b979650505050505050565b600181815b80851115612ba6578160001904821115612b8c57612b8c612881565b80851615612b9957918102915b93841c9390800290612b70565b509250929050565b600082612bbd575060016105f4565b81612bca575060006105f4565b8160018114612be05760028114612bea57612c06565b60019150506105f4565b60ff841115612bfb57612bfb612881565b50506001821b6105f4565b5060208310610133831016604e8410600b8410161715612c29575081810a6105f4565b612c338383612b6b565b8060001904821115612c4757612c47612881565b029392505050565b6000611f058383612bae565b818103818111156105f4576105f4612881565b6000816000190483118215151615612c8857612c88612881565b500290565b60008351612c9f818460208801612375565b835190830190612cb3818360208801612375565b01949350505050565b808201808211156105f4576105f4612881565b7f7b226e616d65223a202200000000000000000000000000000000000000000000815260008451612d0781600a850160208901612375565b7f222c20226465736372697074696f6e223a2022506f6c79676f6e206e616d6520600a918401918201527f7365727669636520646f6d61696e222c2022696d616765223a2022646174613a602a8201527f696d6167652f7376672b786d6c3b6261736536342c0000000000000000000000604a8201528451612d9081605f840160208901612375565b7f222c226c656e677468223a220000000000000000000000000000000000000000605f92909101918201528351612dce81606b840160208801612375565b7f227d000000000000000000000000000000000000000000000000000000000000606b9290910191820152606d0195945050505050565b7f646174613a6170706c69636174696f6e2f6a736f6e3b6261736536342c000000815260008251612e3d81601d850160208701612375565b91909101601d0192915050565b6000611f058284612aa4565b634e487b7160e01b600052601260045260246000fd5b600082612e7b57612e7b612e56565b500490565b600082612e8f57612e8f612e56565b500690565b60006001600160a01b03808716835280861660208401525083604083015260806060830152612b2e6080830184612399565b600060208284031215612ed857600080fd5b8151611f058161234256fe4142434445464748494a4b4c4d4e4f505152535455565758595a6162636465666768696a6b6c6d6e6f707172737475767778797a303132333435363738392b2fa264697066735822122031e48f2d620f19038296256bbc9699c73551ef94e580daf924fa50191a39616764736f6c634300081000333c73766720786d6c6e733d22687474703a2f2f7777772e77332e6f72672f323030302f737667222077696474683d2232373022206865696768743d22323730222066696c6c3d226e6f6e65223e3c706174682066696c6c3d2275726c282342292220643d224d302030683237307632373048307a222f3e3c646566733e3c66696c7465722069643d22412220636f6c6f722d696e746572706f6c6174696f6e2d66696c746572733d2273524742222066696c746572556e6974733d227573657253706163654f6e55736522206865696768743d22323730222077696474683d22323730223e3c666544726f70536861646f772064783d2230222064793d22312220737464446576696174696f6e3d22322220666c6f6f642d6f7061636974793d222e323235222077696474683d223230302522206865696768743d2232303025222f3e3c2f66696c7465723e3c2f646566733e3c7061746820643d224d37322e3836332034322e393439632d2e3636382d2e3338372d312e3432362d2e35392d322e3139372d2e3539732d312e3532392e3230342d322e3139372e35396c2d31302e30383120362e3033322d362e383520332e3933342d31302e30383120362e303332632d2e3636382e3338372d312e3432362e35392d322e3139372e3539732d312e3532392d2e3230342d322e3139372d2e35396c2d382e3031332d342e37323161342e353220342e35322030203020312d312e3538392d312e363136632d2e3338342d2e3636352d2e3539342d312e3431382d2e3630382d322e313837762d392e3331632d2e3031332d2e3737352e3138352d312e3533382e3537322d322e32303861342e323520342e323520302030203120312e3632352d312e3539356c372e3838342d342e3539632e3636382d2e33383720312e3432362d2e353920322e3139372d2e353973312e3532392e32303420322e3139372e35396c372e38383420342e353961342e353220342e353220302030203120312e35383920312e363136632e3338342e3636352e35393420312e3431382e36303820322e31383776362e3033326c362e38352d342e303635762d362e303332632e3031332d2e3737352d2e3138352d312e3533382d2e3537322d322e32303861342e323520342e32352030203020302d312e3632352d312e3539354c34312e3435362032342e3539632d2e3636382d2e3338372d312e3432362d2e35392d322e3139372d2e3539732d312e3532392e3230342d322e3139372e35396c2d31342e38363420382e36353561342e323520342e32352030203020302d312e36323520312e353935632d2e3338372e36372d2e35383520312e3433342d2e35373220322e3230387631372e343431632d2e3031332e3737352e31383520312e3533382e35373220322e32303861342e323520342e323520302030203020312e36323520312e3539356c31342e38363420382e363535632e3636382e33383720312e3432362e353920322e3139372e353973312e3532392d2e32303420322e3139372d2e35396c31302e3038312d352e39303120362e38352d342e3036352031302e3038312d352e393031632e3636382d2e33383720312e3432362d2e353920322e3139372d2e353973312e3532392e32303420322e3139372e35396c372e38383420342e353961342e353220342e353220302030203120312e35383920312e363136632e3338342e3636352e35393420312e3431382e36303820322e31383776392e333131632e3031332e3737352d2e31383520312e3533382d2e35373220322e32303861342e323520342e32352030203020312d312e36323520312e3539356c2d372e38383420342e373231632d2e3636382e3338372d312e3432362e35392d322e3139372e3539732d312e3532392d2e3230342d322e3139372d2e35396c2d372e3838342d342e353961342e353220342e35322030203020312d312e3538392d312e363136632d2e3338352d2e3636352d2e3539342d312e3431382d2e3630382d322e313837762d362e3033326c2d362e383520342e30363576362e303332632d2e3031332e3737352e31383520312e3533382e35373220322e32303861342e323520342e323520302030203020312e36323520312e3539356c31342e38363420382e363535632e3636382e33383720312e3432362e353920322e3139372e353973312e3532392d2e32303420322e3139372d2e35396c31342e3836342d382e363535632e3635372d2e33393420312e3230342d2e393520312e3538392d312e363136732e3539342d312e3431382e3630392d322e3138375635352e353338632e3031332d2e3737352d2e3138352d312e3533382d2e3537322d322e32303861342e323520342e32352030203020302d312e3632352d312e3539356c2d31342e3939332d382e3738367a222066696c6c3d2223666666222f3e3c646566733e3c6c696e6561724772616469656e742069643d2242222078313d2230222079313d2230222078323d22323730222079323d2232373022206772616469656e74556e6974733d227573657253706163654f6e557365223e3c73746f702073746f702d636f6c6f723d2223636235656565222f3e3c73746f70206f66667365743d2231222073746f702d636f6c6f723d2223306364376534222073746f702d6f7061636974793d222e3939222f3e3c2f6c696e6561724772616469656e743e3c2f646566733e3c7465787420783d2233322e352220793d223233312220666f6e742d73697a653d223237222066696c6c3d2223666666222066696c7465723d2275726c282341292220666f6e742d66616d696c793d22506c7573204a616b617274612053616e732c44656a6156752053616e732c4e6f746f20436f6c6f7220456d6f6a692c4170706c6520436f6c6f7220456d6f6a692c73616e732d73657269662220666f6e742d7765696768743d22626f6c64223e",
  "linkReferences": {},
  "deployedLinkReferences": {}
}