{
	"_format": "hh-sol-artifact-1",
	"contractName": "Domains",
	"sourceName": "contracts/Domains.sol",
	"abi": [
		{
			"inputs": [],
			"stateMutability": "payable",
			"type": "constructor"
		},
		{
			"inputs": [],
			"name": "AlreadyRegistered",
			"type": "error"
		},
		{
			"inputs": [],
			"name": "IncorrectEtherPaid",
			"type": "error"
		},
		{
			"inputs": [],
			"name": "InvalidLeaseTime",
			"type": "error"
		},
		{
			"inputs": [],
			"name": "LeaseExpired",
			"type": "error"
		},
		{
			"inputs": [],
			"name": "NotOwner",
			"type": "error"
		},
		{
			"inputs": [],
			"name": "NotRegistered",
			"type": "error"
		},
		{
			"inputs": [],
			"name": "NotValidName",
			"type": "error"
		},
		{
			"inputs": [],
			"name": "WithdrawError",
			"type": "error"
		},
		{
			"anonymous": false,
			"inputs": [
				{
					"indexed": true,
					"internalType": "address",
					"name": "owner",
					"type": "address"
				},
				{
					"indexed": true,
					"internalType": "address",
					"name": "approved",
					"type": "address"
				},
				{
					"indexed": true,
					"internalType": "uint256",
					"name": "tokenId",
					"type": "uint256"
				}
			],
			"name": "Approval",
			"type": "event"
		},
		{
			"anonymous": false,
			"inputs": [
				{
					"indexed": true,
					"internalType": "address",
					"name": "owner",
					"type": "address"
				},
				{
					"indexed": true,
					"internalType": "address",
					"name": "operator",
					"type": "address"
				},
				{
					"indexed": false,
					"internalType": "bool",
					"name": "approved",
					"type": "bool"
				}
			],
			"name": "ApprovalForAll",
			"type": "event"
		},
		{
			"anonymous": false,
			"inputs": [
				{
					"indexed": true,
					"internalType": "address",
					"name": "previousOwner",
					"type": "address"
				},
				{
					"indexed": true,
					"internalType": "address",
					"name": "newOwner",
					"type": "address"
				}
			],
			"name": "OwnershipTransferred",
			"type": "event"
		},
		{
			"anonymous": false,
			"inputs": [
				{
					"indexed": false,
					"internalType": "address",
					"name": "registrant",
					"type": "address"
				},
				{
					"indexed": false,
					"internalType": "string",
					"name": "domain",
					"type": "string"
				},
				{
					"indexed": true,
					"internalType": "address",
					"name": "registrantIndexed",
					"type": "address"
				},
				{
					"indexed": true,
					"internalType": "string",
					"name": "domainIndexed",
					"type": "string"
				}
			],
			"name": "Registered",
			"type": "event"
		},
		{
			"anonymous": false,
			"inputs": [
				{
					"indexed": true,
					"internalType": "address",
					"name": "from",
					"type": "address"
				},
				{
					"indexed": true,
					"internalType": "address",
					"name": "to",
					"type": "address"
				},
				{
					"indexed": true,
					"internalType": "uint256",
					"name": "tokenId",
					"type": "uint256"
				}
			],
			"name": "Transfer",
			"type": "event"
		},
		{
			"inputs": [
				{
					"internalType": "address",
					"name": "to",
					"type": "address"
				},
				{
					"internalType": "uint256",
					"name": "tokenId",
					"type": "uint256"
				}
			],
			"name": "approve",
			"outputs": [],
			"stateMutability": "nonpayable",
			"type": "function"
		},
		{
			"inputs": [
				{
					"internalType": "address",
					"name": "owner",
					"type": "address"
				}
			],
			"name": "balanceOf",
			"outputs": [
				{
					"internalType": "uint256",
					"name": "",
					"type": "uint256"
				}
			],
			"stateMutability": "view",
			"type": "function"
		},
		{
			"inputs": [],
			"name": "domainLengthPriceUpperBound",
			"outputs": [
				{
					"internalType": "uint256",
					"name": "",
					"type": "uint256"
				}
			],
			"stateMutability": "view",
			"type": "function"
		},
		{
			"inputs": [],
			"name": "getAllDomains",
			"outputs": [
				{
					"internalType": "string[]",
					"name": "",
					"type": "string[]"
				}
			],
			"stateMutability": "view",
			"type": "function"
		},
		{
			"inputs": [
				{
					"internalType": "uint256",
					"name": "tokenId",
					"type": "uint256"
				}
			],
			"name": "getApproved",
			"outputs": [
				{
					"internalType": "address",
					"name": "",
					"type": "address"
				}
			],
			"stateMutability": "view",
			"type": "function"
		},
		{
			"inputs": [
				{
					"internalType": "string",
					"name": "domainName",
					"type": "string"
				}
			],
			"name": "getDomainData",
			"outputs": [
				{
					"internalType": "string",
					"name": "",
					"type": "string"
				}
			],
			"stateMutability": "view",
			"type": "function"
		},
		{
			"inputs": [
				{
					"internalType": "string",
					"name": "domainName",
					"type": "string"
				}
			],
			"name": "getLeaseRenewCost",
			"outputs": [
				{
					"internalType": "uint256",
					"name": "",
					"type": "uint256"
				}
			],
			"stateMutability": "view",
			"type": "function"
		},
		{
			"inputs": [
				{
					"internalType": "string",
					"name": "domainName",
					"type": "string"
				}
			],
			"name": "getLeaseTimeRemaining",
			"outputs": [
				{
					"internalType": "uint256",
					"name": "",
					"type": "uint256"
				}
			],
			"stateMutability": "view",
			"type": "function"
		},
		{
			"inputs": [
				{
					"internalType": "address",
					"name": "owner",
					"type": "address"
				}
			],
			"name": "getOwnedDomains",
			"outputs": [
				{
					"components": [
						{
							"internalType": "string",
							"name": "name",
							"type": "string"
						},
						{
							"internalType": "address",
							"name": "owner",
							"type": "address"
						},
						{
							"internalType": "string",
							"name": "data",
							"type": "string"
						},
						{
							"internalType": "string",
							"name": "uri",
							"type": "string"
						},
						{
							"internalType": "uint256",
							"name": "tokenId",
							"type": "uint256"
						},
						{
							"internalType": "uint256",
							"name": "leaseEndTime",
							"type": "uint256"
						}
					],
					"internalType": "struct Domains.DomainComplete[]",
					"name": "",
					"type": "tuple[]"
				}
			],
			"stateMutability": "view",
			"type": "function"
		},
		{
			"inputs": [
				{
					"internalType": "string",
					"name": "domainName",
					"type": "string"
				}
			],
			"name": "getPrice",
			"outputs": [
				{
					"internalType": "uint256",
					"name": "",
					"type": "uint256"
				}
			],
			"stateMutability": "view",
			"type": "function"
		},
		{
			"inputs": [
				{
					"internalType": "address",
					"name": "owner",
					"type": "address"
				},
				{
					"internalType": "address",
					"name": "operator",
					"type": "address"
				}
			],
			"name": "isApprovedForAll",
			"outputs": [
				{
					"internalType": "bool",
					"name": "",
					"type": "bool"
				}
			],
			"stateMutability": "view",
			"type": "function"
		},
		{
			"inputs": [
				{
					"internalType": "string",
					"name": "domainName",
					"type": "string"
				}
			],
			"name": "isRegistered",
			"outputs": [
				{
					"internalType": "bool",
					"name": "",
					"type": "bool"
				}
			],
			"stateMutability": "view",
			"type": "function"
		},
		{
			"inputs": [],
			"name": "maxDomainLength",
			"outputs": [
				{
					"internalType": "uint256",
					"name": "",
					"type": "uint256"
				}
			],
			"stateMutability": "view",
			"type": "function"
		},
		{
			"inputs": [],
			"name": "maxLeaseTime",
			"outputs": [
				{
					"internalType": "uint256",
					"name": "",
					"type": "uint256"
				}
			],
			"stateMutability": "view",
			"type": "function"
		},
		{
			"inputs": [],
			"name": "minDomainLength",
			"outputs": [
				{
					"internalType": "uint256",
					"name": "",
					"type": "uint256"
				}
			],
			"stateMutability": "view",
			"type": "function"
		},
		{
			"inputs": [
				{
					"internalType": "string",
					"name": "domainName",
					"type": "string"
				},
				{
					"internalType": "string",
					"name": "data",
					"type": "string"
				}
			],
			"name": "modifyData",
			"outputs": [],
			"stateMutability": "nonpayable",
			"type": "function"
		},
		{
			"inputs": [],
			"name": "name",
			"outputs": [
				{
					"internalType": "string",
					"name": "",
					"type": "string"
				}
			],
			"stateMutability": "view",
			"type": "function"
		},
		{
			"inputs": [],
			"name": "owner",
			"outputs": [
				{
					"internalType": "address",
					"name": "",
					"type": "address"
				}
			],
			"stateMutability": "view",
			"type": "function"
		},
		{
			"inputs": [
				{
					"internalType": "uint256",
					"name": "tokenId",
					"type": "uint256"
				}
			],
			"name": "ownerOf",
			"outputs": [
				{
					"internalType": "address",
					"name": "",
					"type": "address"
				}
			],
			"stateMutability": "view",
			"type": "function"
		},
		{
			"inputs": [],
			"name": "priceUnits",
			"outputs": [
				{
					"internalType": "uint256",
					"name": "",
					"type": "uint256"
				}
			],
			"stateMutability": "view",
			"type": "function"
		},
		{
			"inputs": [
				{
					"internalType": "string",
					"name": "domainName",
					"type": "string"
				},
				{
					"internalType": "string",
					"name": "data",
					"type": "string"
				}
			],
			"name": "register",
			"outputs": [],
			"stateMutability": "payable",
			"type": "function"
		},
		{
			"inputs": [
				{
					"internalType": "string",
					"name": "domainName",
					"type": "string"
				}
			],
			"name": "renewLease",
			"outputs": [],
			"stateMutability": "payable",
			"type": "function"
		},
		{
			"inputs": [],
			"name": "renounceOwnership",
			"outputs": [],
			"stateMutability": "nonpayable",
			"type": "function"
		},
		{
			"inputs": [
				{
					"internalType": "address",
					"name": "from",
					"type": "address"
				},
				{
					"internalType": "address",
					"name": "to",
					"type": "address"
				},
				{
					"internalType": "uint256",
					"name": "tokenId",
					"type": "uint256"
				}
			],
			"name": "safeTransferFrom",
			"outputs": [],
			"stateMutability": "nonpayable",
			"type": "function"
		},
		{
			"inputs": [
				{
					"internalType": "address",
					"name": "from",
					"type": "address"
				},
				{
					"internalType": "address",
					"name": "to",
					"type": "address"
				},
				{
					"internalType": "uint256",
					"name": "tokenId",
					"type": "uint256"
				},
				{
					"internalType": "bytes",
					"name": "data",
					"type": "bytes"
				}
			],
			"name": "safeTransferFrom",
			"outputs": [],
			"stateMutability": "nonpayable",
			"type": "function"
		},
		{
			"inputs": [
				{
					"internalType": "address",
					"name": "operator",
					"type": "address"
				},
				{
					"internalType": "bool",
					"name": "approved",
					"type": "bool"
				}
			],
			"name": "setApprovalForAll",
			"outputs": [],
			"stateMutability": "nonpayable",
			"type": "function"
		},
		{
			"inputs": [
				{
					"internalType": "uint256",
					"name": "newLeaseTime",
					"type": "uint256"
				}
			],
			"name": "setMaxLeaseTime",
			"outputs": [],
			"stateMutability": "nonpayable",
			"type": "function"
		},
		{
			"inputs": [
				{
					"internalType": "bytes4",
					"name": "interfaceId",
					"type": "bytes4"
				}
			],
			"name": "supportsInterface",
			"outputs": [
				{
					"internalType": "bool",
					"name": "",
					"type": "bool"
				}
			],
			"stateMutability": "view",
			"type": "function"
		},
		{
			"inputs": [],
			"name": "symbol",
			"outputs": [
				{
					"internalType": "string",
					"name": "",
					"type": "string"
				}
			],
			"stateMutability": "view",
			"type": "function"
		},
		{
			"inputs": [
				{
					"internalType": "uint256",
					"name": "tokenId",
					"type": "uint256"
				}
			],
			"name": "tokenURI",
			"outputs": [
				{
					"internalType": "string",
					"name": "",
					"type": "string"
				}
			],
			"stateMutability": "view",
			"type": "function"
		},
		{
			"inputs": [
				{
					"internalType": "address",
					"name": "from",
					"type": "address"
				},
				{
					"internalType": "address",
					"name": "to",
					"type": "address"
				},
				{
					"internalType": "uint256",
					"name": "tokenId",
					"type": "uint256"
				}
			],
			"name": "transferFrom",
			"outputs": [],
			"stateMutability": "nonpayable",
			"type": "function"
		},
		{
			"inputs": [
				{
					"internalType": "address",
					"name": "newOwner",
					"type": "address"
				}
			],
			"name": "transferOwnership",
			"outputs": [],
			"stateMutability": "nonpayable",
			"type": "function"
		},
		{
			"inputs": [],
			"name": "withdraw",
			"outputs": [],
			"stateMutability": "nonpayable",
			"type": "function"
		}
	],
	"bytecode": "0x6007600855600c60098190556000600a556011600b556301e13380905561092060405261086e6080818152906200364f60a039600d90620000419082620001fd565b5060405180610100016040528060cb81526020016200358460cb9139600e906200006c9082620001fd565b506040518060400160405280601481526020017f506f6c79676f6e204e616d65205365727669636500000000000000000000000081525060405180604001604052806003815260200162504e5360e81b8152508160009081620000d09190620001fd565b506001620000df8282620001fd565b505050620000fc620000f66200010260201b60201c565b62000106565b620002c9565b3390565b600780546001600160a01b038381166001600160a01b0319831681179093556040519116919082907f8be0079c531659141344cd1fd0a4f28419497f9722a3daafe3b4186f6b6457e090600090a35050565b634e487b7160e01b600052604160045260246000fd5b600181811c908216806200018357607f821691505b602082108103620001a457634e487b7160e01b600052602260045260246000fd5b50919050565b601f821115620001f857600081815260208120601f850160051c81016020861015620001d35750805b601f850160051c820191505b81811015620001f457828155600101620001df565b5050505b505050565b81516001600160401b0381111562000219576200021962000158565b62000231816200022a84546200016e565b84620001aa565b602080601f831160018114620002695760008415620002505750858301515b600019600386901b1c1916600185901b178555620001f4565b600085815260208120601f198616915b828110156200029a5788860151825594840194600190910190840162000279565b5085821015620002b95787850151600019600388901b60f8161c191681555b5050505050600190811b01905550565b6132ab80620002d96000396000f3fe6080604052600436106101fe5760003560e01c8063715018a61161011d578063a1980169116100b0578063c822d7f01161007f578063e985e9c511610064578063e985e9c5146105a2578063ed8ea3b4146105eb578063f2fde38b1461060b57600080fd5b8063c822d7f014610562578063c87b56dd1461058257600080fd5b8063a1980169146104e2578063a22cb46514610502578063b88d4fde14610522578063b9d3ddd41461054257600080fd5b806381efe0e5116100ec57806381efe0e5146104835780638b9d8e58146104995780638da5cb5b146104af57806395d89b41146104cd57600080fd5b8063715018a6146104185780637afdfb4f1461042d5780637d6a7c711461044d578063810caa241461046357600080fd5b80632f26a64411610195578063524f388911610164578063524f3889146103965780635a018e6a146103b65780636352211e146103d857806370a08231146103f857600080fd5b80632f26a6441461033b5780633ccfd60b1461034e5780633ffbd47f1461036357806342842e0e1461037657600080fd5b8063095ea7b3116101d1578063095ea7b3146102b65780631a3f4eab146102d85780631a6c821b146102ee57806323b872dd1461031b57600080fd5b806301ffc9a71461020357806306279d721461023857806306fdde031461025c578063081812fc1461027e575b600080fd5b34801561020f57600080fd5b5061022361021e366004612682565b61062b565b60405190151581526020015b60405180910390f35b34801561024457600080fd5b5061024e600b5481565b60405190815260200161022f565b34801561026857600080fd5b506102716106c8565b60405161022f91906126ef565b34801561028a57600080fd5b5061029e610299366004612702565b61075a565b6040516001600160a01b03909116815260200161022f565b3480156102c257600080fd5b506102d66102d1366004612737565b610781565b005b3480156102e457600080fd5b5061024e60085481565b3480156102fa57600080fd5b5061030e610309366004612761565b6108b7565b60405161022f919061277c565b34801561032757600080fd5b506102d6610336366004612845565b610b9e565b6102d66103493660046128ca565b610c25565b34801561035a57600080fd5b506102d6610d01565b6102d661037136600461290c565b610d91565b34801561038257600080fd5b506102d6610391366004612845565b610ec4565b3480156103a257600080fd5b5061024e6103b13660046128ca565b610edf565b3480156103c257600080fd5b506103cb610f64565b60405161022f9190612978565b3480156103e457600080fd5b5061029e6103f3366004612702565b61109d565b34801561040457600080fd5b5061024e610413366004612761565b611102565b34801561042457600080fd5b506102d661119c565b34801561043957600080fd5b506102716104483660046128ca565b6111b0565b34801561045957600080fd5b5061024e600c5481565b34801561046f57600080fd5b5061024e61047e3660046128ca565b6112d0565b34801561048f57600080fd5b5061024e600a5481565b3480156104a557600080fd5b5061024e60095481565b3480156104bb57600080fd5b506007546001600160a01b031661029e565b3480156104d957600080fd5b5061027161131e565b3480156104ee57600080fd5b506102d66104fd36600461290c565b61132d565b34801561050e57600080fd5b506102d661051d3660046129da565b6113b4565b34801561052e57600080fd5b506102d661053d366004612a2c565b6113bf565b34801561054e57600080fd5b506102d661055d366004612702565b611447565b34801561056e57600080fd5b5061022361057d3660046128ca565b61149f565b34801561058e57600080fd5b5061027161059d366004612702565b6114e0565b3480156105ae57600080fd5b506102236105bd366004612b08565b6001600160a01b03918216600090815260056020908152604080832093909416825291909152205460ff1690565b3480156105f757600080fd5b5061024e6106063660046128ca565b6115f0565b34801561061757600080fd5b506102d6610626366004612761565b61162e565b60006001600160e01b031982167f80ac58cd00000000000000000000000000000000000000000000000000000000148061068e57506001600160e01b031982167f5b5e139f00000000000000000000000000000000000000000000000000000000145b806106c257507f01ffc9a7000000000000000000000000000000000000000000000000000000006001600160e01b03198316145b92915050565b6060600080546106d790612b3b565b80601f016020809104026020016040519081016040528092919081815260200182805461070390612b3b565b80156107505780601f1061072557610100808354040283529160200191610750565b820191906000526020600020905b81548152906001019060200180831161073357829003601f168201915b5050505050905090565b6000610765826116be565b506000908152600460205260409020546001600160a01b031690565b600061078c8261109d565b9050806001600160a01b0316836001600160a01b03160361081a5760405162461bcd60e51b815260206004820152602160248201527f4552433732313a20617070726f76616c20746f2063757272656e74206f776e6560448201527f720000000000000000000000000000000000000000000000000000000000000060648201526084015b60405180910390fd5b336001600160a01b0382161480610836575061083681336105bd565b6108a85760405162461bcd60e51b815260206004820152603e60248201527f4552433732313a20617070726f76652063616c6c6572206973206e6f7420746f60448201527f6b656e206f776e6572206e6f7220617070726f76656420666f7220616c6c00006064820152608401610811565b6108b28383611722565b505050565b606060006108c483611102565b90506000808267ffffffffffffffff8111156108e2576108e2612a16565b60405190808252806020026020018201604052801561095557816020015b6109426040518060c001604052806060815260200160006001600160a01b03168152602001606081526020016060815260200160008152602001600081525090565b8152602001906001900390816109005790505b5090506000610963600f5490565b905060005b81811015610b93576000818152601160205260408120805461098990612b3b565b80601f01602080910402602001604051908101604052809291908181526020018280546109b590612b3b565b8015610a025780601f106109d757610100808354040283529160200191610a02565b820191906000526020600020905b8154815290600101906020018083116109e557829003601f168201915b505050505090506000601082604051610a1b9190612b75565b9081526040805191829003602090810183206080840190925281546001600160a01b0316835260018201805491840191610a5490612b3b565b80601f0160208091040260200160405190810160405280929190818152602001828054610a8090612b3b565b8015610acd5780601f10610aa257610100808354040283529160200191610acd565b820191906000526020600020905b815481529060010190602001808311610ab057829003601f168201915b50505050508152602001600282015481526020016003820154815250509050886001600160a01b031681600001516001600160a01b031603610b7e576040518060c0016040528083815260200182600001516001600160a01b0316815260200182602001518152602001610b40856114e0565b8152604080840151602083015260608401519101528587610b6081612ba7565b985081518110610b7257610b72612bc0565b60200260200101819052505b50508080610b8b90612ba7565b915050610968565b509095945050505050565b610ba83382611790565b610c1a5760405162461bcd60e51b815260206004820152602e60248201527f4552433732313a2063616c6c6572206973206e6f7420746f6b656e206f776e6560448201527f72206e6f7220617070726f7665640000000000000000000000000000000000006064820152608401610811565b6108b283838361180e565b610c2f82826119e1565b610c4c57604051630eab650560e11b815260040160405180910390fd5b610c56828261149f565b610c735760405163aba4733960e01b815260040160405180910390fd5b610c7d8282611a3d565b610c9a576040516330cd747160e01b815260040160405180910390fd5b610cad34610ca884846115f0565b611a76565b15610ccb57604051632e31881560e11b815260040160405180910390fd5b600c54610cd89042612bd6565b60108383604051610cea929190612be9565b908152604051908190036020019020600301555050565b610d09611aa7565b6040514790600090339083908381818185875af1925050503d8060008114610d4d576040519150601f19603f3d011682016040523d82523d6000602084013e610d52565b606091505b5050905080610d8d576040517fd477157400000000000000000000000000000000000000000000000000000000815260040160405180910390fd5b5050565b610d9b84846119e1565b610db857604051630eab650560e11b815260040160405180910390fd5b610dc634610ca88686610edf565b15610de457604051632e31881560e11b815260040160405180910390fd5b610dee848461149f565b15610eb257610dfd84846112d0565b600003610e8057600060108585604051610e18929190612be9565b90815260405190819003602001902080546002820154919250610e48916001600160a01b0390911690339061180e565b600c54610e559042612bd6565b60108686604051610e67929190612be9565b9081526040519081900360200190206003015550610ebe565b6040517f3a81d6fc00000000000000000000000000000000000000000000000000000000815260040160405180910390fd5b610ebe84848484611b01565b50505050565b6108b2838383604051806020016040528060008152506113bf565b600080610f2184848080601f016020809104026020016040519081016040528093929190818152602001838380828437600092019190915250611cf592505050565b6008549091508190811115610f3557506008545b600b54610f4390600a612cdd565b81600854610f519190612ce9565b610f5b9190612cfc565b95945050505050565b60606000610f71600f5490565b905060008167ffffffffffffffff811115610f8e57610f8e612a16565b604051908082528060200260200182016040528015610fc157816020015b6060815260200190600190039081610fac5790505b50905060005b828110156110965760008181526011602052604090208054610fe890612b3b565b80601f016020809104026020016040519081016040528092919081815260200182805461101490612b3b565b80156110615780601f1061103657610100808354040283529160200191611061565b820191906000526020600020905b81548152906001019060200180831161104457829003601f168201915b505050505082828151811061107857611078612bc0565b6020026020010181905250808061108e90612ba7565b915050610fc7565b5092915050565b6000818152600260205260408120546001600160a01b0316806106c25760405162461bcd60e51b815260206004820152601860248201527f4552433732313a20696e76616c696420746f6b656e20494400000000000000006044820152606401610811565b60006001600160a01b0382166111805760405162461bcd60e51b815260206004820152602960248201527f4552433732313a2061646472657373207a65726f206973206e6f74206120766160448201527f6c6964206f776e657200000000000000000000000000000000000000000000006064820152608401610811565b506001600160a01b031660009081526003602052604090205490565b6111a4611aa7565b6111ae6000611e84565b565b60606111bc838361149f565b6111d95760405163aba4733960e01b815260040160405180910390fd5b6111e383836112d0565b60000361121c576040517f5f9b55ea00000000000000000000000000000000000000000000000000000000815260040160405180910390fd5b6010838360405161122e929190612be9565b9081526020016040518091039020600101805461124a90612b3b565b80601f016020809104026020016040519081016040528092919081815260200182805461127690612b3b565b80156112c35780601f10611298576101008083540402835291602001916112c3565b820191906000526020600020905b8154815290600101906020018083116112a657829003601f168201915b5050505050905092915050565b60008042601085856040516112e6929190612be9565b9081526020016040518091039020600301546113029190612d1b565b905060008112156113175760009150506106c2565b9392505050565b6060600180546106d790612b3b565b611337848461149f565b6113545760405163aba4733960e01b815260040160405180910390fd5b61135e8484611a3d565b61137b576040516330cd747160e01b815260040160405180910390fd5b81816010868660405161138f929190612be9565b908152602001604051809103902060010191826113ad929190612d89565b5050505050565b610d8d338383611ed6565b6113c93383611790565b61143b5760405162461bcd60e51b815260206004820152602e60248201527f4552433732313a2063616c6c6572206973206e6f7420746f6b656e206f776e6560448201527f72206e6f7220617070726f7665640000000000000000000000000000000000006064820152608401610811565b610ebe84848484611fa4565b61144f611aa7565b62eff10081108061146357506303c2670081115b1561149a576040517f1cbfaf8500000000000000000000000000000000000000000000000000000000815260040160405180910390fd5b600c55565b6000806001600160a01b0316601084846040516114bd929190612be9565b908152604051908190036020019020546001600160a01b03161415905092915050565b60606114eb826116be565b6000828152600660205260408120805461150490612b3b565b80601f016020809104026020016040519081016040528092919081815260200182805461153090612b3b565b801561157d5780601f106115525761010080835404028352916020019161157d565b820191906000526020600020905b81548152906001019060200180831161156057829003601f168201915b50505050509050600061159b60408051602081019091526000815290565b905080516000036115ad575092915050565b8151156115df5780826040516020016115c7929190612e49565b60405160208183030381529060405292505050919050565b6115e88461202d565b949350505050565b6000806115fd84846112d0565b600c5461160a9190612ce9565b9050600c548161161a8686610edf565b6116249190612cfc565b6115e89190612e8e565b611636611aa7565b6001600160a01b0381166116b25760405162461bcd60e51b815260206004820152602660248201527f4f776e61626c653a206e6577206f776e657220697320746865207a65726f206160448201527f64647265737300000000000000000000000000000000000000000000000000006064820152608401610811565b6116bb81611e84565b50565b6000818152600260205260409020546001600160a01b03166116bb5760405162461bcd60e51b815260206004820152601860248201527f4552433732313a20696e76616c696420746f6b656e20494400000000000000006044820152606401610811565b600081815260046020526040902080546001600160a01b0319166001600160a01b03841690811790915581906117578261109d565b6001600160a01b03167f8c5be1e5ebec7d5bd14f71427d1e84f3dd0314c0f7b2291e5b200ac8c7c3b92560405160405180910390a45050565b60008061179c8361109d565b9050806001600160a01b0316846001600160a01b031614806117e357506001600160a01b0380821660009081526005602090815260408083209388168352929052205460ff165b806115e85750836001600160a01b03166117fc8461075a565b6001600160a01b031614949350505050565b826001600160a01b03166118218261109d565b6001600160a01b03161461189d5760405162461bcd60e51b815260206004820152602560248201527f4552433732313a207472616e736665722066726f6d20696e636f72726563742060448201527f6f776e65720000000000000000000000000000000000000000000000000000006064820152608401610811565b6001600160a01b0382166119185760405162461bcd60e51b8152602060048201526024808201527f4552433732313a207472616e7366657220746f20746865207a65726f2061646460448201527f72657373000000000000000000000000000000000000000000000000000000006064820152608401610811565b611923600082611722565b6001600160a01b038316600090815260036020526040812080546001929061194c908490612ce9565b90915550506001600160a01b038216600090815260036020526040812080546001929061197a908490612bd6565b909155505060008181526002602052604080822080546001600160a01b0319166001600160a01b0386811691821790925591518493918716917fddf252ad1be2c89b69c2b068fc378daa952ba7f163c4a11628f55a4df523b3ef91a46108b28383836120a0565b600080611a2384848080601f016020809104026020016040519081016040528093929190818152602001838380828437600092019190915250611cf592505050565b9050600a54811180156115e8575060095410159392505050565b600060108383604051611a51929190612be9565b90815260405190819003602001902054336001600160a01b0390911614905092915050565b6000611a8764e8d4a5100083612ce9565b8310806113175750611a9e8264e8d4a51000612bd6565b83119392505050565b6007546001600160a01b031633146111ae5760405162461bcd60e51b815260206004820181905260248201527f4f776e61626c653a2063616c6c6572206973206e6f7420746865206f776e65726044820152606401610811565b6000611b0c600f5490565b6000818152601160205260409020909150611b28858783612d89565b5060006040518060800160405280336001600160a01b0316815260200185858080601f01602080910402602001604051908101604052809392919081815260200183838082843760009201919091525050509082525060208101849052600c54604090910190611b989042612bd6565b81525090508060108787604051611bb0929190612be9565b90815260405160209181900382019020825181546001600160a01b0319166001600160a01b03909116178155908201516001820190611bef9082612ea2565b5060408201516002820155606090910151600390910155611c14600f80546001019055565b611c1e33836120f7565b6000600d8787600e604051602001611c399493929190612fd5565b60408051601f198184030181526020601f8a018190048102840181019092528883529250611c8f918591611c8a91908b908b908190840183828082843760009201919091525087925061217e915050565b6121eb565b8686604051611c9f929190612be9565b6040518091039020336001600160a01b03167f08f558dce8ec18800e8a7a2129734f935bb7aa80b94d41e1ee1a5f5791109d3f338a8a604051611ce493929190613002565b60405180910390a350505050505050565b8051600090819081905b80821015611e7b576000858381518110611d1b57611d1b612bc0565b01602001516001600160f81b03191690507f8000000000000000000000000000000000000000000000000000000000000000811015611d6657611d5f600184612bd6565b9250611e68565b7fe0000000000000000000000000000000000000000000000000000000000000006001600160f81b031982161015611da357611d5f600284612bd6565b7ff0000000000000000000000000000000000000000000000000000000000000006001600160f81b031982161015611de057611d5f600384612bd6565b7ff8000000000000000000000000000000000000000000000000000000000000006001600160f81b031982161015611e1d57611d5f600484612bd6565b7ffc000000000000000000000000000000000000000000000000000000000000006001600160f81b031982161015611e5a57611d5f600584612bd6565b611e65600684612bd6565b92505b5082611e7381612ba7565b935050611cff565b50909392505050565b600780546001600160a01b038381166001600160a01b0319831681179093556040519116919082907f8be0079c531659141344cd1fd0a4f28419497f9722a3daafe3b4186f6b6457e090600090a35050565b816001600160a01b0316836001600160a01b031603611f375760405162461bcd60e51b815260206004820152601960248201527f4552433732313a20617070726f766520746f2063616c6c6572000000000000006044820152606401610811565b6001600160a01b03838116600081815260056020908152604080832094871680845294825291829020805460ff191686151590811790915591519182527f17307eab39ab6107e8899845ad3d59bd9653f200f220920489ca2b5937696c31910160405180910390a3505050565b611faf84848461180e565b611fbb8484848461228d565b610ebe5760405162461bcd60e51b815260206004820152603260248201527f4552433732313a207472616e7366657220746f206e6f6e20455243373231526560448201527f63656976657220696d706c656d656e74657200000000000000000000000000006064820152608401610811565b6060612038826116be565b600061204f60408051602081019091526000815290565b9050600081511161206f5760405180602001604052806000815250611317565b80612079846123e4565b60405160200161208a929190612e49565b6040516020818303038152906040529392505050565b816010601160008481526020019081526020016000206040516120c39190613041565b90815260405190819003602001902080546001600160a01b03929092166001600160a01b0319909216919091179055505050565b6001600160a01b0382166000908152600360205260408120805460019290612120908490612bd6565b909155505060008181526002602052604080822080546001600160a01b0319166001600160a01b03861690811790915590518392907fddf252ad1be2c89b69c2b068fc378daa952ba7f163c4a11628f55a4df523b3ef908290a45050565b60606121c48361218d84612519565b61219e61219987611cf5565b6123e4565b6040516020016121b09392919061304d565b604051602081830303815290604052612519565b6040516020016121d49190613183565b604051602081830303815290604052905092915050565b6000828152600260205260409020546001600160a01b03166122755760405162461bcd60e51b815260206004820152602e60248201527f45524337323155524953746f726167653a2055524920736574206f66206e6f6e60448201527f6578697374656e7420746f6b656e0000000000000000000000000000000000006064820152608401610811565b60008281526006602052604090206108b28282612ea2565b60006001600160a01b0384163b156123d957604051630a85bd0160e11b81526001600160a01b0385169063150b7a02906122d19033908990889088906004016131c8565b6020604051808303816000875af192505050801561230c575060408051601f3d908101601f1916820190925261230991810190613204565b60015b6123bf573d80801561233a576040519150601f19603f3d011682016040523d82523d6000602084013e61233f565b606091505b5080516000036123b75760405162461bcd60e51b815260206004820152603260248201527f4552433732313a207472616e7366657220746f206e6f6e20455243373231526560448201527f63656976657220696d706c656d656e74657200000000000000000000000000006064820152608401610811565b805181602001fd5b6001600160e01b031916630a85bd0160e11b1490506115e8565b506001949350505050565b60608160000361242757505060408051808201909152600181527f3000000000000000000000000000000000000000000000000000000000000000602082015290565b8160005b8115612451578061243b81612ba7565b915061244a9050600a83612e8e565b915061242b565b60008167ffffffffffffffff81111561246c5761246c612a16565b6040519080825280601f01601f191660200182016040528015612496576020820181803683370190505b5090505b84156115e8576124ab600183612ce9565b91506124b8600a86613221565b6124c3906030612bd6565b60f81b8183815181106124d8576124d8612bc0565b60200101907effffffffffffffffffffffffffffffffffffffffffffffffffffffffffffff1916908160001a905350612512600a86612e8e565b945061249a565b6060815160000361253857505060408051602081019091526000815290565b600060405180606001604052806040815260200161323660409139905060006003845160026125679190612bd6565b6125719190612e8e565b61257c906004612cfc565b67ffffffffffffffff81111561259457612594612a16565b6040519080825280601f01601f1916602001820160405280156125be576020820181803683370190505b509050600182016020820185865187015b8082101561262a576003820191508151603f8160121c168501518453600184019350603f81600c1c168501518453600184019350603f8160061c168501518453600184019350603f81168501518453506001830192506125cf565b5050600386510660018114612646576002811461265957612661565b603d6001830353603d6002830353612661565b603d60018303535b509195945050505050565b6001600160e01b0319811681146116bb57600080fd5b60006020828403121561269457600080fd5b81356113178161266c565b60005b838110156126ba5781810151838201526020016126a2565b50506000910152565b600081518084526126db81602086016020860161269f565b601f01601f19169290920160200192915050565b60208152600061131760208301846126c3565b60006020828403121561271457600080fd5b5035919050565b80356001600160a01b038116811461273257600080fd5b919050565b6000806040838503121561274a57600080fd5b6127538361271b565b946020939093013593505050565b60006020828403121561277357600080fd5b6113178261271b565b60006020808301818452808551808352604092508286019150828160051b87010184880160005b8381101561283757603f19898403018552815160c081518186526127c9828701826126c3565b9150506001600160a01b0389830151168986015287820151858203898701526127f282826126c3565b9150506060808301518683038288015261280c83826126c3565b6080858101519089015260a094850151949097019390935250505093860193908601906001016127a3565b509098975050505050505050565b60008060006060848603121561285a57600080fd5b6128638461271b565b92506128716020850161271b565b9150604084013590509250925092565b60008083601f84011261289357600080fd5b50813567ffffffffffffffff8111156128ab57600080fd5b6020830191508360208285010111156128c357600080fd5b9250929050565b600080602083850312156128dd57600080fd5b823567ffffffffffffffff8111156128f457600080fd5b61290085828601612881565b90969095509350505050565b6000806000806040858703121561292257600080fd5b843567ffffffffffffffff8082111561293a57600080fd5b61294688838901612881565b9096509450602087013591508082111561295f57600080fd5b5061296c87828801612881565b95989497509550505050565b6000602080830181845280855180835260408601915060408160051b870101925083870160005b828110156129cd57603f198886030184526129bb8583516126c3565b9450928501929085019060010161299f565b5092979650505050505050565b600080604083850312156129ed57600080fd5b6129f68361271b565b915060208301358015158114612a0b57600080fd5b809150509250929050565b634e487b7160e01b600052604160045260246000fd5b60008060008060808587031215612a4257600080fd5b612a4b8561271b565b9350612a596020860161271b565b925060408501359150606085013567ffffffffffffffff80821115612a7d57600080fd5b818701915087601f830112612a9157600080fd5b813581811115612aa357612aa3612a16565b604051601f8201601f19908116603f01168101908382118183101715612acb57612acb612a16565b816040528281528a6020848701011115612ae457600080fd5b82602086016020830137600060208483010152809550505050505092959194509250565b60008060408385031215612b1b57600080fd5b612b248361271b565b9150612b326020840161271b565b90509250929050565b600181811c90821680612b4f57607f821691505b602082108103612b6f57634e487b7160e01b600052602260045260246000fd5b50919050565b60008251612b8781846020870161269f565b9190910192915050565b634e487b7160e01b600052601160045260246000fd5b600060018201612bb957612bb9612b91565b5060010190565b634e487b7160e01b600052603260045260246000fd5b808201808211156106c2576106c2612b91565b8183823760009101908152919050565b600181815b80851115612c34578160001904821115612c1a57612c1a612b91565b80851615612c2757918102915b93841c9390800290612bfe565b509250929050565b600082612c4b575060016106c2565b81612c58575060006106c2565b8160018114612c6e5760028114612c7857612c94565b60019150506106c2565b60ff841115612c8957612c89612b91565b50506001821b6106c2565b5060208310610133831016604e8410600b8410161715612cb7575081810a6106c2565b612cc18383612bf9565b8060001904821115612cd557612cd5612b91565b029392505050565b60006113178383612c3c565b818103818111156106c2576106c2612b91565b6000816000190483118215151615612d1657612d16612b91565b500290565b818103600083128015838313168383128216171561109657611096612b91565b601f8211156108b257600081815260208120601f850160051c81016020861015612d625750805b601f850160051c820191505b81811015612d8157828155600101612d6e565b505050505050565b67ffffffffffffffff831115612da157612da1612a16565b612db583612daf8354612b3b565b83612d3b565b6000601f841160018114612de95760008515612dd15750838201355b600019600387901b1c1916600186901b1783556113ad565b600083815260209020601f19861690835b82811015612e1a5786850135825560209485019460019092019101612dfa565b5086821015612e375760001960f88860031b161c19848701351681555b505060018560011b0183555050505050565b60008351612e5b81846020880161269f565b835190830190612e6f81836020880161269f565b01949350505050565b634e487b7160e01b600052601260045260246000fd5b600082612e9d57612e9d612e78565b500490565b815167ffffffffffffffff811115612ebc57612ebc612a16565b612ed081612eca8454612b3b565b84612d3b565b602080601f831160018114612f055760008415612eed5750858301515b600019600386901b1c1916600185901b178555612d81565b600085815260208120601f198616915b82811015612f3457888601518255948401946001909101908401612f15565b5085821015612f525787850151600019600388901b60f8161c191681555b5050505050600190811b01905550565b60008154612f6f81612b3b565b60018281168015612f875760018114612f9c57612fcb565b60ff1984168752821515830287019450612fcb565b8560005260208060002060005b85811015612fc25781548a820152908401908201612fa9565b50505082870194505b5050505092915050565b6000612fe18287612f62565b848682376000908501908152612ff78185612f62565b979650505050505050565b6001600160a01b038416815260406020820152816040820152818360608301376000818301606090810191909152601f909201601f1916010192915050565b60006113178284612f62565b7f7b226e616d65223a20220000000000000000000000000000000000000000000081526000845161308581600a85016020890161269f565b7f222c20226465736372697074696f6e223a2022506f6c79676f6e206e616d6520600a918401918201527f7365727669636520646f6d61696e222c2022696d616765223a2022646174613a602a8201527f696d6167652f7376672b786d6c3b6261736536342c0000000000000000000000604a820152845161310e81605f84016020890161269f565b7f222c226c656e677468223a220000000000000000000000000000000000000000605f9290910191820152835161314c81606b84016020880161269f565b7f227d000000000000000000000000000000000000000000000000000000000000606b9290910191820152606d0195945050505050565b7f646174613a6170706c69636174696f6e2f6a736f6e3b6261736536342c0000008152600082516131bb81601d85016020870161269f565b91909101601d0192915050565b60006001600160a01b038087168352808616602084015250836040830152608060608301526131fa60808301846126c3565b9695505050505050565b60006020828403121561321657600080fd5b81516113178161266c565b60008261323057613230612e78565b50069056fe4142434445464748494a4b4c4d4e4f505152535455565758595a6162636465666768696a6b6c6d6e6f707172737475767778797a303132333435363738392b2fa26469706673582212207cf69ae79ec35bed80494277028e279c09277065e19712b3f20b51537786ccdc64736f6c634300081000333c2f746578743e3c7465787420783d2231362220793d223233312220666f6e742d73697a653d223230222066696c6c3d2223646664336533222066696c7465723d2275726c282341292220666f6e742d66616d696c793d22506c7573204a616b617274612053616e732c44656a6156752053616e732c4e6f746f20436f6c6f7220456d6f6a692c4170706c6520436f6c6f7220456d6f6a692c73616e732d73657269662220666f6e742d7765696768743d22626f6c64223e2e6d617469633c2f746578743e3c2f7376673e3c73766720786d6c6e733d22687474703a2f2f7777772e77332e6f72672f323030302f737667222077696474683d2232373022206865696768743d22323730222066696c6c3d226e6f6e65223e3c706174682066696c6c3d2275726c282342292220643d224d302030683237307632373048307a22202f3e3c646566733e3c66696c7465722069643d22412220636f6c6f722d696e746572706f6c6174696f6e2d66696c746572733d2273524742222066696c746572556e6974733d227573657253706163654f6e55736522206865696768743d22323730222077696474683d22323730223e3c666544726f70536861646f772064783d2230222064793d22312220737464446576696174696f6e3d22322220666c6f6f642d6f7061636974793d222e323235222077696474683d223230302522206865696768743d223230302522202f3e3c2f66696c7465723e3c2f646566733e3c7061746820643d224d37322e3836332034322e393439632d2e3636382d2e3338372d312e3432362d2e35392d322e3139372d2e3539732d312e3532392e3230342d322e3139372e35396c2d31302e30383120362e3033322d362e383520332e3933342d31302e30383120362e303332632d2e3636382e3338372d312e3432362e35392d322e3139372e3539732d312e3532392d2e3230342d322e3139372d2e35396c2d382e3031332d342e37323161342e353220342e35322030203020312d312e3538392d312e363136632d2e3338342d2e3636352d2e3539342d312e3431382d2e3630382d322e313837762d392e3331632d2e3031332d2e3737352e3138352d312e3533382e3537322d322e32303861342e323520342e323520302030203120312e3632352d312e3539356c372e3838342d342e3539632e3636382d2e33383720312e3432362d2e353920322e3139372d2e353973312e3532392e32303420322e3139372e35396c372e38383420342e353961342e353220342e353220302030203120312e35383920312e363136632e3338342e3636352e35393420312e3431382e36303820322e31383776362e3033326c362e38352d342e303635762d362e303332632e3031332d2e3737352d2e3138352d312e3533382d2e3537322d322e32303861342e323520342e32352030203020302d312e3632352d312e3539354c34312e3435362032342e3539632d2e3636382d2e3338372d312e3432362d2e35392d322e3139372d2e3539732d312e3532392e3230342d322e3139372e35396c2d31342e38363420382e36353561342e323520342e32352030203020302d312e36323520312e353935632d2e3338372e36372d2e35383520312e3433342d2e35373220322e3230387631372e343431632d2e3031332e3737352e31383520312e3533382e35373220322e32303861342e323520342e323520302030203020312e36323520312e3539356c31342e38363420382e363535632e3636382e33383720312e3432362e353920322e3139372e353973312e3532392d2e32303420322e3139372d2e35396c31302e3038312d352e39303120362e38352d342e3036352031302e3038312d352e393031632e3636382d2e33383720312e3432362d2e353920322e3139372d2e353973312e3532392e32303420322e3139372e35396c372e38383420342e353961342e353220342e353220302030203120312e35383920312e363136632e3338342e3636352e35393420312e3431382e36303820322e31383776392e333131632e3031332e3737352d2e31383520312e3533382d2e35373220322e32303861342e323520342e32352030203020312d312e36323520312e3539356c2d372e38383420342e373231632d2e3636382e3338372d312e3432362e35392d322e3139372e3539732d312e3532392d2e3230342d322e3139372d2e35396c2d372e3838342d342e353961342e353220342e35322030203020312d312e3538392d312e363136632d2e3338352d2e3636352d2e3539342d312e3431382d2e3630382d322e313837762d362e3033326c2d362e383520342e30363576362e303332632d2e3031332e3737352e31383520312e3533382e35373220322e32303861342e323520342e323520302030203020312e36323520312e3539356c31342e38363420382e363535632e3636382e33383720312e3432362e353920322e3139372e353973312e3532392d2e32303420322e3139372d2e35396c31342e3836342d382e363535632e3635372d2e33393420312e3230342d2e393520312e3538392d312e363136732e3539342d312e3431382e3630392d322e3138375635352e353338632e3031332d2e3737352d2e3138352d312e3533382d2e3537322d322e32303861342e323520342e32352030203020302d312e3632352d312e3539356c2d31342e3939332d382e3738367a222066696c6c3d222366666622202f3e3c646566733e3c6c696e6561724772616469656e742069643d2242222078313d2230222079313d2230222078323d22323730222079323d2232373022206772616469656e74556e6974733d227573657253706163654f6e557365223e3c73746f702073746f702d636f6c6f723d222363623565656522202f3e3c73746f70206f66667365743d2231222073746f702d636f6c6f723d2223306364376534222073746f702d6f7061636974793d222e393922202f3e3c2f6c696e6561724772616469656e743e3c2f646566733e3c7465787420783d2231362220793d223230302220666f6e742d73697a653d223237222066696c6c3d2223666666222066696c7465723d2275726c282341292220666f6e742d66616d696c793d22506c7573204a616b617274612053616e732c44656a6156752053616e732c4e6f746f20436f6c6f7220456d6f6a692c4170706c6520436f6c6f7220456d6f6a692c73616e732d73657269662220666f6e742d7765696768743d22626f6c64223e",
	"linkReferences": {},
	"deployedLinkReferences": {}
}