{
  "_format": "hh-sol-artifact-1",
  "contractName": "Domains",
  "sourceName": "contracts/Domains.sol",
  "abi": [
    {
      "inputs": [],
      "stateMutability": "payable",
      "type": "constructor"
    },
    {
      "anonymous": false,
      "inputs": [
        {
          "indexed": true,
          "internalType": "address",
          "name": "owner",
          "type": "address"
        },
        {
          "indexed": true,
          "internalType": "address",
          "name": "approved",
          "type": "address"
        },
        {
          "indexed": true,
          "internalType": "uint256",
          "name": "tokenId",
          "type": "uint256"
        }
      ],
      "name": "Approval",
      "type": "event"
    },
    {
      "anonymous": false,
      "inputs": [
        {
          "indexed": true,
          "internalType": "address",
          "name": "owner",
          "type": "address"
        },
        {
          "indexed": true,
          "internalType": "address",
          "name": "operator",
          "type": "address"
        },
        {
          "indexed": false,
          "internalType": "bool",
          "name": "approved",
          "type": "bool"
        }
      ],
      "name": "ApprovalForAll",
      "type": "event"
    },
    {
      "anonymous": false,
      "inputs": [
        {
          "indexed": true,
          "internalType": "address",
          "name": "from",
          "type": "address"
        },
        {
          "indexed": true,
          "internalType": "address",
          "name": "to",
          "type": "address"
        },
        {
          "indexed": true,
          "internalType": "uint256",
          "name": "tokenId",
          "type": "uint256"
        }
      ],
      "name": "Transfer",
      "type": "event"
    },
    {
      "inputs": [
        {
          "internalType": "address",
          "name": "to",
          "type": "address"
        },
        {
          "internalType": "uint256",
          "name": "tokenId",
          "type": "uint256"
        }
      ],
      "name": "approve",
      "outputs": [],
      "stateMutability": "nonpayable",
      "type": "function"
    },
    {
      "inputs": [
        {
          "internalType": "address",
          "name": "owner",
          "type": "address"
        }
      ],
      "name": "balanceOf",
      "outputs": [
        {
          "internalType": "uint256",
          "name": "",
          "type": "uint256"
        }
      ],
      "stateMutability": "view",
      "type": "function"
    },
    {
      "inputs": [],
      "name": "domainLengthPriceUpperBound",
      "outputs": [
        {
          "internalType": "uint256",
          "name": "",
          "type": "uint256"
        }
      ],
      "stateMutability": "view",
      "type": "function"
    },
    {
      "inputs": [
        {
          "internalType": "uint256",
          "name": "tokenId",
          "type": "uint256"
        }
      ],
      "name": "getApproved",
      "outputs": [
        {
          "internalType": "address",
          "name": "",
          "type": "address"
        }
      ],
      "stateMutability": "view",
      "type": "function"
    },
    {
      "inputs": [
        {
          "internalType": "string",
          "name": "domainName",
          "type": "string"
        }
      ],
      "name": "getDomainData",
      "outputs": [
        {
          "components": [
            {
              "internalType": "address",
              "name": "owner",
              "type": "address"
            },
            {
              "internalType": "string",
              "name": "data",
              "type": "string"
            }
          ],
          "internalType": "struct Domains.Domain",
          "name": "",
          "type": "tuple"
        }
      ],
      "stateMutability": "view",
      "type": "function"
    },
    {
      "inputs": [
        {
          "internalType": "string",
          "name": "domainName",
          "type": "string"
        }
      ],
      "name": "getPrice",
      "outputs": [
        {
          "internalType": "uint256",
          "name": "",
          "type": "uint256"
        }
      ],
      "stateMutability": "view",
      "type": "function"
    },
    {
      "inputs": [
        {
          "internalType": "address",
          "name": "owner",
          "type": "address"
        },
        {
          "internalType": "address",
          "name": "operator",
          "type": "address"
        }
      ],
      "name": "isApprovedForAll",
      "outputs": [
        {
          "internalType": "bool",
          "name": "",
          "type": "bool"
        }
      ],
      "stateMutability": "view",
      "type": "function"
    },
    {
      "inputs": [
        {
          "internalType": "string",
          "name": "domainName",
          "type": "string"
        },
        {
          "internalType": "string",
          "name": "data",
          "type": "string"
        }
      ],
      "name": "modifyData",
      "outputs": [],
      "stateMutability": "nonpayable",
      "type": "function"
    },
    {
      "inputs": [],
      "name": "name",
      "outputs": [
        {
          "internalType": "string",
          "name": "",
          "type": "string"
        }
      ],
      "stateMutability": "view",
      "type": "function"
    },
    {
      "inputs": [
        {
          "internalType": "uint256",
          "name": "tokenId",
          "type": "uint256"
        }
      ],
      "name": "ownerOf",
      "outputs": [
        {
          "internalType": "address",
          "name": "",
          "type": "address"
        }
      ],
      "stateMutability": "view",
      "type": "function"
    },
    {
      "inputs": [],
      "name": "priceUnits",
      "outputs": [
        {
          "internalType": "uint256",
          "name": "",
          "type": "uint256"
        }
      ],
      "stateMutability": "view",
      "type": "function"
    },
    {
      "inputs": [
        {
          "internalType": "string",
          "name": "domainName",
          "type": "string"
        },
        {
          "internalType": "string",
          "name": "data",
          "type": "string"
        }
      ],
      "name": "register",
      "outputs": [],
      "stateMutability": "payable",
      "type": "function"
    },
    {
      "inputs": [
        {
          "internalType": "address",
          "name": "from",
          "type": "address"
        },
        {
          "internalType": "address",
          "name": "to",
          "type": "address"
        },
        {
          "internalType": "uint256",
          "name": "tokenId",
          "type": "uint256"
        }
      ],
      "name": "safeTransferFrom",
      "outputs": [],
      "stateMutability": "nonpayable",
      "type": "function"
    },
    {
      "inputs": [
        {
          "internalType": "address",
          "name": "from",
          "type": "address"
        },
        {
          "internalType": "address",
          "name": "to",
          "type": "address"
        },
        {
          "internalType": "uint256",
          "name": "tokenId",
          "type": "uint256"
        },
        {
          "internalType": "bytes",
          "name": "data",
          "type": "bytes"
        }
      ],
      "name": "safeTransferFrom",
      "outputs": [],
      "stateMutability": "nonpayable",
      "type": "function"
    },
    {
      "inputs": [
        {
          "internalType": "address",
          "name": "operator",
          "type": "address"
        },
        {
          "internalType": "bool",
          "name": "approved",
          "type": "bool"
        }
      ],
      "name": "setApprovalForAll",
      "outputs": [],
      "stateMutability": "nonpayable",
      "type": "function"
    },
    {
      "inputs": [
        {
          "internalType": "bytes4",
          "name": "interfaceId",
          "type": "bytes4"
        }
      ],
      "name": "supportsInterface",
      "outputs": [
        {
          "internalType": "bool",
          "name": "",
          "type": "bool"
        }
      ],
      "stateMutability": "view",
      "type": "function"
    },
    {
      "inputs": [],
      "name": "symbol",
      "outputs": [
        {
          "internalType": "string",
          "name": "",
          "type": "string"
        }
      ],
      "stateMutability": "view",
      "type": "function"
    },
    {
      "inputs": [],
      "name": "tld",
      "outputs": [
        {
          "internalType": "string",
          "name": "",
          "type": "string"
        }
      ],
      "stateMutability": "view",
      "type": "function"
    },
    {
      "inputs": [
        {
          "internalType": "uint256",
          "name": "tokenId",
          "type": "uint256"
        }
      ],
      "name": "tokenURI",
      "outputs": [
        {
          "internalType": "string",
          "name": "",
          "type": "string"
        }
      ],
      "stateMutability": "view",
      "type": "function"
    },
    {
      "inputs": [
        {
          "internalType": "address",
          "name": "from",
          "type": "address"
        },
        {
          "internalType": "address",
          "name": "to",
          "type": "address"
        },
        {
          "internalType": "uint256",
          "name": "tokenId",
          "type": "uint256"
        }
      ],
      "name": "transferFrom",
      "outputs": [],
      "stateMutability": "nonpayable",
      "type": "function"
    }
  ],
  "bytecode": "0x60c060405260066080908152652e6d6174696360d01b60a052600790620000279082620001b3565b50600b600855600f600955604051806108a0016040528061086b8152602001620029bc61086b9139600a906200005e9082620001b3565b5060408051808201909152600d81526c1e17ba32bc3a1f1e17b9bb339f60991b6020820152600b90620000929082620001b3565b506040518060400160405280601481526020017f506f6c79676f6e204e616d65205365727669636500000000000000000000000081525060405180604001604052806003815260200162504e5360e81b8152508160009081620000f69190620001b3565b506001620001058282620001b3565b5050506200027f565b634e487b7160e01b600052604160045260246000fd5b600181811c908216806200013957607f821691505b6020821081036200015a57634e487b7160e01b600052602260045260246000fd5b50919050565b601f821115620001ae57600081815260208120601f850160051c81016020861015620001895750805b601f850160051c820191505b81811015620001aa5782815560010162000195565b5050505b505050565b81516001600160401b03811115620001cf57620001cf6200010e565b620001e781620001e0845462000124565b8462000160565b602080601f8311600181146200021f5760008415620002065750858301515b600019600386901b1c1916600185901b178555620001aa565b600085815260208120601f198616915b8281101562000250578886015182559484019460019091019084016200022f565b50858210156200026f5787850151600019600388901b60f8161c191681555b5050505050600190811b01905550565b61272d806200028f6000396000f3fe60806040526004361061015f5760003560e01c8063524f3889116100c0578063a198016911610074578063b88d4fde11610059578063b88d4fde14610399578063c87b56dd146103b9578063e985e9c5146103d957600080fd5b8063a198016914610359578063a22cb4651461037957600080fd5b806370a08231116100a557806370a08231146102f75780637afdfb4f1461031757806395d89b411461034457600080fd5b8063524f3889146102b75780636352211e146102d757600080fd5b80631a3f4eab116101175780632d551432116100fc5780632d5514321461026f5780633ffbd47f1461028457806342842e0e1461029757600080fd5b80631a3f4eab1461023957806323b872dd1461024f57600080fd5b806306fdde031161014857806306fdde03146101bd578063081812fc146101df578063095ea7b31461021757600080fd5b806301ffc9a71461016457806306279d7214610199575b600080fd5b34801561017057600080fd5b5061018461017f366004611c67565b610422565b60405190151581526020015b60405180910390f35b3480156101a557600080fd5b506101af60095481565b604051908152602001610190565b3480156101c957600080fd5b506101d26104bf565b6040516101909190611cd4565b3480156101eb57600080fd5b506101ff6101fa366004611ce7565b610551565b6040516001600160a01b039091168152602001610190565b34801561022357600080fd5b50610237610232366004611d1c565b610578565b005b34801561024557600080fd5b506101af60085481565b34801561025b57600080fd5b5061023761026a366004611d46565b6106ae565b34801561027b57600080fd5b506101d2610735565b610237610292366004611dcb565b6107c3565b3480156102a357600080fd5b506102376102b2366004611d46565b610a13565b3480156102c357600080fd5b506101af6102d2366004611e37565b610a2e565b3480156102e357600080fd5b506101ff6102f2366004611ce7565b610b02565b34801561030357600080fd5b506101af610312366004611e79565b610b67565b34801561032357600080fd5b50610337610332366004611e37565b610c01565b6040516101909190611e94565b34801561035057600080fd5b506101d2610cea565b34801561036557600080fd5b50610237610374366004611dcb565b610cf9565b34801561038557600080fd5b50610237610394366004611ec2565b610dde565b3480156103a557600080fd5b506102376103b4366004611f14565b610ded565b3480156103c557600080fd5b506101d26103d4366004611ce7565b610e7b565b3480156103e557600080fd5b506101846103f4366004611ff0565b6001600160a01b03918216600090815260056020908152604080832093909416825291909152205460ff1690565b60006001600160e01b031982167f80ac58cd00000000000000000000000000000000000000000000000000000000148061048557506001600160e01b031982167f5b5e139f00000000000000000000000000000000000000000000000000000000145b806104b957507f01ffc9a7000000000000000000000000000000000000000000000000000000006001600160e01b03198316145b92915050565b6060600080546104ce90612023565b80601f01602080910402602001604051908101604052809291908181526020018280546104fa90612023565b80156105475780601f1061051c57610100808354040283529160200191610547565b820191906000526020600020905b81548152906001019060200180831161052a57829003601f168201915b5050505050905090565b600061055c82610f8b565b506000908152600460205260409020546001600160a01b031690565b600061058382610b02565b9050806001600160a01b0316836001600160a01b0316036106115760405162461bcd60e51b815260206004820152602160248201527f4552433732313a20617070726f76616c20746f2063757272656e74206f776e6560448201527f720000000000000000000000000000000000000000000000000000000000000060648201526084015b60405180910390fd5b336001600160a01b038216148061062d575061062d81336103f4565b61069f5760405162461bcd60e51b815260206004820152603e60248201527f4552433732313a20617070726f76652063616c6c6572206973206e6f7420746f60448201527f6b656e206f776e6572206e6f7220617070726f76656420666f7220616c6c00006064820152608401610608565b6106a98383610ff2565b505050565b6106b83382611060565b61072a5760405162461bcd60e51b815260206004820152602e60248201527f4552433732313a2063616c6c6572206973206e6f7420746f6b656e206f776e6560448201527f72206e6f7220617070726f7665640000000000000000000000000000000000006064820152608401610608565b6106a98383836110de565b6007805461074290612023565b80601f016020809104026020016040519081016040528092919081815260200182805461076e90612023565b80156107bb5780601f10610790576101008083540402835291602001916107bb565b820191906000526020600020905b81548152906001019060200180831161079e57829003601f168201915b505050505081565b6107cd84846112b1565b156108405760405162461bcd60e51b815260206004820152602260248201527f446f6d61696e2068617320616c7265616479206265656e20726567697374657260448201527f65640000000000000000000000000000000000000000000000000000000000006064820152608401610608565b61084a8484610a2e565b34146108be5760405162461bcd60e51b815260206004820152603a60248201527f5472616e73616374696f6e207061796d656e7420646f6573206e6f742065717560448201527f616c20746865207072696365206f662074686520646f6d61696e0000000000006064820152608401610608565b60006040518060400160405280336001600160a01b0316815260200184848080601f01602080910402602001604051908101604052809392919081815260200183838082843760009201919091525050509152506040519091508190600d9061092a908890889061205d565b90815260405160209181900382019020825181546001600160a01b0319166001600160a01b0390911617815590820151600182019061096990826120bb565b5050600c546000818152600e6020526040902090915061098a86888361217b565b50610999600c80546001019055565b6109a333826112f2565b6000868660076040516020016109bb939291906122ae565b60405160208183030381529060405290506000600a82600b6040516020016109e5939291906122cf565b6040516020818303038152906040529050610a0983610a048484611379565b6113e6565b5050505050505050565b6106a983838360405180602001604052806000815250610ded565b600080610a7084848080601f01602080910402602001604051908101604052809392919081815260200183838082843760009201919091525061148892505050565b905060008111610ac25760405162461bcd60e51b815260206004820152601360248201527f446f6d61696e20697320746f6f2073686f7274000000000000000000000000006044820152606401610608565b6008548190811115610ad357506008545b600954610ae190600a6123fc565b81600854610aef9190612408565b610af9919061241b565b95945050505050565b6000818152600260205260408120546001600160a01b0316806104b95760405162461bcd60e51b815260206004820152601860248201527f4552433732313a20696e76616c696420746f6b656e20494400000000000000006044820152606401610608565b60006001600160a01b038216610be55760405162461bcd60e51b815260206004820152602960248201527f4552433732313a2061646472657373207a65726f206973206e6f74206120766160448201527f6c6964206f776e657200000000000000000000000000000000000000000000006064820152608401610608565b506001600160a01b031660009081526003602052604090205490565b604080518082019091526000815260606020820152600d8383604051610c2892919061205d565b90815260408051918290036020908101832083830190925281546001600160a01b0316835260018201805491840191610c6090612023565b80601f0160208091040260200160405190810160405280929190818152602001828054610c8c90612023565b8015610cd95780601f10610cae57610100808354040283529160200191610cd9565b820191906000526020600020905b815481529060010190602001808311610cbc57829003601f168201915b505050505081525050905092915050565b6060600180546104ce90612023565b610d0384846112b1565b610d4f5760405162461bcd60e51b815260206004820152601e60248201527f446f6d61696e20686173206e6f74206265656e207265676973746572656400006044820152606401610608565b610d598484611617565b610da55760405162461bcd60e51b815260206004820152601f60248201527f53656e64657220646f6573206e6f74206f776e207468697320646f6d61696e006044820152606401610608565b8181600d8686604051610db992919061205d565b90815260200160405180910390206001019182610dd792919061217b565b5050505050565b610de9338383611650565b5050565b610df73383611060565b610e695760405162461bcd60e51b815260206004820152602e60248201527f4552433732313a2063616c6c6572206973206e6f7420746f6b656e206f776e6560448201527f72206e6f7220617070726f7665640000000000000000000000000000000000006064820152608401610608565b610e758484848461171e565b50505050565b6060610e8682610f8b565b60008281526006602052604081208054610e9f90612023565b80601f0160208091040260200160405190810160405280929190818152602001828054610ecb90612023565b8015610f185780601f10610eed57610100808354040283529160200191610f18565b820191906000526020600020905b815481529060010190602001808311610efb57829003601f168201915b505050505090506000610f3660408051602081019091526000815290565b90508051600003610f48575092915050565b815115610f7a578082604051602001610f62929190612432565b60405160208183030381529060405292505050919050565b610f83846117a7565b949350505050565b6000818152600260205260409020546001600160a01b0316610fef5760405162461bcd60e51b815260206004820152601860248201527f4552433732313a20696e76616c696420746f6b656e20494400000000000000006044820152606401610608565b50565b600081815260046020526040902080546001600160a01b0319166001600160a01b038416908117909155819061102782610b02565b6001600160a01b03167f8c5be1e5ebec7d5bd14f71427d1e84f3dd0314c0f7b2291e5b200ac8c7c3b92560405160405180910390a45050565b60008061106c83610b02565b9050806001600160a01b0316846001600160a01b031614806110b357506001600160a01b0380821660009081526005602090815260408083209388168352929052205460ff165b80610f835750836001600160a01b03166110cc84610551565b6001600160a01b031614949350505050565b826001600160a01b03166110f182610b02565b6001600160a01b03161461116d5760405162461bcd60e51b815260206004820152602560248201527f4552433732313a207472616e736665722066726f6d20696e636f72726563742060448201527f6f776e65720000000000000000000000000000000000000000000000000000006064820152608401610608565b6001600160a01b0382166111e85760405162461bcd60e51b8152602060048201526024808201527f4552433732313a207472616e7366657220746f20746865207a65726f2061646460448201527f72657373000000000000000000000000000000000000000000000000000000006064820152608401610608565b6111f3600082610ff2565b6001600160a01b038316600090815260036020526040812080546001929061121c908490612408565b90915550506001600160a01b038216600090815260036020526040812080546001929061124a908490612461565b909155505060008181526002602052604080822080546001600160a01b0319166001600160a01b0386811691821790925591518493918716917fddf252ad1be2c89b69c2b068fc378daa952ba7f163c4a11628f55a4df523b3ef91a46106a983838361181b565b6000806001600160a01b0316600d84846040516112cf92919061205d565b908152604051908190036020019020546001600160a01b03161415905092915050565b6001600160a01b038216600090815260036020526040812080546001929061131b908490612461565b909155505060008181526002602052604080822080546001600160a01b0319166001600160a01b03861690811790915590518392907fddf252ad1be2c89b69c2b068fc378daa952ba7f163c4a11628f55a4df523b3ef908290a45050565b60606113bf8361138884611872565b61139961139487611488565b6119c5565b6040516020016113ab93929190612474565b604051602081830303815290604052611872565b6040516020016113cf91906125aa565b604051602081830303815290604052905092915050565b6000828152600260205260409020546001600160a01b03166114705760405162461bcd60e51b815260206004820152602e60248201527f45524337323155524953746f726167653a2055524920736574206f66206e6f6e60448201527f6578697374656e7420746f6b656e0000000000000000000000000000000000006064820152608401610608565b60008281526006602052604090206106a982826120bb565b8051600090819081905b8082101561160e5760008583815181106114ae576114ae6125ef565b01602001516001600160f81b03191690507f80000000000000000000000000000000000000000000000000000000000000008110156114f9576114f2600184612461565b92506115fb565b7fe0000000000000000000000000000000000000000000000000000000000000006001600160f81b031982161015611536576114f2600284612461565b7ff0000000000000000000000000000000000000000000000000000000000000006001600160f81b031982161015611573576114f2600384612461565b7ff8000000000000000000000000000000000000000000000000000000000000006001600160f81b0319821610156115b0576114f2600484612461565b7ffc000000000000000000000000000000000000000000000000000000000000006001600160f81b0319821610156115ed576114f2600584612461565b6115f8600684612461565b92505b508261160681612605565b935050611492565b50909392505050565b6000600d838360405161162b92919061205d565b90815260405190819003602001902054336001600160a01b0390911614905092915050565b816001600160a01b0316836001600160a01b0316036116b15760405162461bcd60e51b815260206004820152601960248201527f4552433732313a20617070726f766520746f2063616c6c6572000000000000006044820152606401610608565b6001600160a01b03838116600081815260056020908152604080832094871680845294825291829020805460ff191686151590811790915591519182527f17307eab39ab6107e8899845ad3d59bd9653f200f220920489ca2b5937696c31910160405180910390a3505050565b6117298484846110de565b61173584848484611afa565b610e755760405162461bcd60e51b815260206004820152603260248201527f4552433732313a207472616e7366657220746f206e6f6e20455243373231526560448201527f63656976657220696d706c656d656e74657200000000000000000000000000006064820152608401610608565b60606117b282610f8b565b60006117c960408051602081019091526000815290565b905060008151116117e95760405180602001604052806000815250611814565b806117f3846119c5565b604051602001611804929190612432565b6040516020818303038152906040525b9392505050565b81600d600e600084815260200190815260200160002060405161183e919061261e565b90815260405190819003602001902080546001600160a01b03929092166001600160a01b0319909216919091179055505050565b6060815160000361189157505060408051602081019091526000815290565b60006040518060600160405280604081526020016126b860409139905060006003845160026118c09190612461565b6118ca9190612640565b6118d590600461241b565b67ffffffffffffffff8111156118ed576118ed611efe565b6040519080825280601f01601f191660200182016040528015611917576020820181803683370190505b509050600182016020820185865187015b80821015611983576003820191508151603f8160121c168501518453600184019350603f81600c1c168501518453600184019350603f8160061c168501518453600184019350603f8116850151845350600183019250611928565b505060038651066001811461199f57600281146119b2576119ba565b603d6001830353603d60028303536119ba565b603d60018303535b509195945050505050565b606081600003611a0857505060408051808201909152600181527f3000000000000000000000000000000000000000000000000000000000000000602082015290565b8160005b8115611a325780611a1c81612605565b9150611a2b9050600a83612640565b9150611a0c565b60008167ffffffffffffffff811115611a4d57611a4d611efe565b6040519080825280601f01601f191660200182016040528015611a77576020820181803683370190505b5090505b8415610f8357611a8c600183612408565b9150611a99600a86612654565b611aa4906030612461565b60f81b818381518110611ab957611ab96125ef565b60200101907effffffffffffffffffffffffffffffffffffffffffffffffffffffffffffff1916908160001a905350611af3600a86612640565b9450611a7b565b60006001600160a01b0384163b15611c4657604051630a85bd0160e11b81526001600160a01b0385169063150b7a0290611b3e903390899088908890600401612668565b6020604051808303816000875af1925050508015611b79575060408051601f3d908101601f19168201909252611b769181019061269a565b60015b611c2c573d808015611ba7576040519150601f19603f3d011682016040523d82523d6000602084013e611bac565b606091505b508051600003611c245760405162461bcd60e51b815260206004820152603260248201527f4552433732313a207472616e7366657220746f206e6f6e20455243373231526560448201527f63656976657220696d706c656d656e74657200000000000000000000000000006064820152608401610608565b805181602001fd5b6001600160e01b031916630a85bd0160e11b149050610f83565b506001949350505050565b6001600160e01b031981168114610fef57600080fd5b600060208284031215611c7957600080fd5b813561181481611c51565b60005b83811015611c9f578181015183820152602001611c87565b50506000910152565b60008151808452611cc0816020860160208601611c84565b601f01601f19169290920160200192915050565b6020815260006118146020830184611ca8565b600060208284031215611cf957600080fd5b5035919050565b80356001600160a01b0381168114611d1757600080fd5b919050565b60008060408385031215611d2f57600080fd5b611d3883611d00565b946020939093013593505050565b600080600060608486031215611d5b57600080fd5b611d6484611d00565b9250611d7260208501611d00565b9150604084013590509250925092565b60008083601f840112611d9457600080fd5b50813567ffffffffffffffff811115611dac57600080fd5b602083019150836020828501011115611dc457600080fd5b9250929050565b60008060008060408587031215611de157600080fd5b843567ffffffffffffffff80821115611df957600080fd5b611e0588838901611d82565b90965094506020870135915080821115611e1e57600080fd5b50611e2b87828801611d82565b95989497509550505050565b60008060208385031215611e4a57600080fd5b823567ffffffffffffffff811115611e6157600080fd5b611e6d85828601611d82565b90969095509350505050565b600060208284031215611e8b57600080fd5b61181482611d00565b602081526001600160a01b03825116602082015260006020830151604080840152610f836060840182611ca8565b60008060408385031215611ed557600080fd5b611ede83611d00565b915060208301358015158114611ef357600080fd5b809150509250929050565b634e487b7160e01b600052604160045260246000fd5b60008060008060808587031215611f2a57600080fd5b611f3385611d00565b9350611f4160208601611d00565b925060408501359150606085013567ffffffffffffffff80821115611f6557600080fd5b818701915087601f830112611f7957600080fd5b813581811115611f8b57611f8b611efe565b604051601f8201601f19908116603f01168101908382118183101715611fb357611fb3611efe565b816040528281528a6020848701011115611fcc57600080fd5b82602086016020830137600060208483010152809550505050505092959194509250565b6000806040838503121561200357600080fd5b61200c83611d00565b915061201a60208401611d00565b90509250929050565b600181811c9082168061203757607f821691505b60208210810361205757634e487b7160e01b600052602260045260246000fd5b50919050565b8183823760009101908152919050565b601f8211156106a957600081815260208120601f850160051c810160208610156120945750805b601f850160051c820191505b818110156120b3578281556001016120a0565b505050505050565b815167ffffffffffffffff8111156120d5576120d5611efe565b6120e9816120e38454612023565b8461206d565b602080601f83116001811461211e57600084156121065750858301515b600019600386901b1c1916600185901b1785556120b3565b600085815260208120601f198616915b8281101561214d5788860151825594840194600190910190840161212e565b508582101561216b5787850151600019600388901b60f8161c191681555b5050505050600190811b01905550565b67ffffffffffffffff83111561219357612193611efe565b6121a7836121a18354612023565b8361206d565b6000601f8411600181146121db57600085156121c35750838201355b600019600387901b1c1916600186901b178355610dd7565b600083815260209020601f19861690835b8281101561220c57868501358255602094850194600190920191016121ec565b50868210156122295760001960f88860031b161c19848701351681555b505060018560011b0183555050505050565b6000815461224881612023565b600182811680156122605760018114612275576122a4565b60ff19841687528215158302870194506122a4565b8560005260208060002060005b8581101561229b5781548a820152908401908201612282565b50505082870194505b5050505092915050565b828482376000838201600081526122c5818561223b565b9695505050505050565b60006122db828661223b565b84516122eb818360208901611c84565b6122f78183018661223b565b979650505050505050565b634e487b7160e01b600052601160045260246000fd5b600181815b8085111561235357816000190482111561233957612339612302565b8085161561234657918102915b93841c939080029061231d565b509250929050565b60008261236a575060016104b9565b81612377575060006104b9565b816001811461238d5760028114612397576123b3565b60019150506104b9565b60ff8411156123a8576123a8612302565b50506001821b6104b9565b5060208310610133831016604e8410600b84101617156123d6575081810a6104b9565b6123e08383612318565b80600019048211156123f4576123f4612302565b029392505050565b6000611814838361235b565b818103818111156104b9576104b9612302565b80820281158282048414176104b9576104b9612302565b60008351612444818460208801611c84565b835190830190612458818360208801611c84565b01949350505050565b808201808211156104b9576104b9612302565b7f7b226e616d65223a2022000000000000000000000000000000000000000000008152600084516124ac81600a850160208901611c84565b7f222c20226465736372697074696f6e223a2022506f6c79676f6e206e616d6520600a918401918201527f7365727669636520646f6d61696e222c2022696d616765223a2022646174613a602a8201527f696d6167652f7376672b786d6c3b6261736536342c0000000000000000000000604a820152845161253581605f840160208901611c84565b7f222c226c656e677468223a220000000000000000000000000000000000000000605f9290910191820152835161257381606b840160208801611c84565b7f227d000000000000000000000000000000000000000000000000000000000000606b9290910191820152606d0195945050505050565b7f646174613a6170706c69636174696f6e2f6a736f6e3b6261736536342c0000008152600082516125e281601d850160208701611c84565b91909101601d0192915050565b634e487b7160e01b600052603260045260246000fd5b60006001820161261757612617612302565b5060010190565b6000611814828461223b565b634e487b7160e01b600052601260045260246000fd5b60008261264f5761264f61262a565b500490565b6000826126635761266361262a565b500690565b60006001600160a01b038087168352808616602084015250836040830152608060608301526122c56080830184611ca8565b6000602082840312156126ac57600080fd5b815161181481611c5156fe4142434445464748494a4b4c4d4e4f505152535455565758595a6162636465666768696a6b6c6d6e6f707172737475767778797a303132333435363738392b2fa2646970667358221220b1c8bbed6a0f90caf2d2f2de1d90047ce2465a4e825321fb3a99cbccaf50df2964736f6c634300081100333c73766720786d6c6e733d22687474703a2f2f7777772e77332e6f72672f323030302f737667222077696474683d2232373022206865696768743d22323730222066696c6c3d226e6f6e65223e3c706174682066696c6c3d2275726c282342292220643d224d302030683237307632373048307a222f3e3c646566733e3c66696c7465722069643d22412220636f6c6f722d696e746572706f6c6174696f6e2d66696c746572733d2273524742222066696c746572556e6974733d227573657253706163654f6e55736522206865696768743d22323730222077696474683d22323730223e3c666544726f70536861646f772064783d2230222064793d22312220737464446576696174696f6e3d22322220666c6f6f642d6f7061636974793d222e323235222077696474683d223230302522206865696768743d2232303025222f3e3c2f66696c7465723e3c2f646566733e3c7061746820643d224d37322e3836332034322e393439632d2e3636382d2e3338372d312e3432362d2e35392d322e3139372d2e3539732d312e3532392e3230342d322e3139372e35396c2d31302e30383120362e3033322d362e383520332e3933342d31302e30383120362e303332632d2e3636382e3338372d312e3432362e35392d322e3139372e3539732d312e3532392d2e3230342d322e3139372d2e35396c2d382e3031332d342e37323161342e353220342e35322030203020312d312e3538392d312e363136632d2e3338342d2e3636352d2e3539342d312e3431382d2e3630382d322e313837762d392e3331632d2e3031332d2e3737352e3138352d312e3533382e3537322d322e32303861342e323520342e323520302030203120312e3632352d312e3539356c372e3838342d342e3539632e3636382d2e33383720312e3432362d2e353920322e3139372d2e353973312e3532392e32303420322e3139372e35396c372e38383420342e353961342e353220342e353220302030203120312e35383920312e363136632e3338342e3636352e35393420312e3431382e36303820322e31383776362e3033326c362e38352d342e303635762d362e303332632e3031332d2e3737352d2e3138352d312e3533382d2e3537322d322e32303861342e323520342e32352030203020302d312e3632352d312e3539354c34312e3435362032342e3539632d2e3636382d2e3338372d312e3432362d2e35392d322e3139372d2e3539732d312e3532392e3230342d322e3139372e35396c2d31342e38363420382e36353561342e323520342e32352030203020302d312e36323520312e353935632d2e3338372e36372d2e35383520312e3433342d2e35373220322e3230387631372e343431632d2e3031332e3737352e31383520312e3533382e35373220322e32303861342e323520342e323520302030203020312e36323520312e3539356c31342e38363420382e363535632e3636382e33383720312e3432362e353920322e3139372e353973312e3532392d2e32303420322e3139372d2e35396c31302e3038312d352e39303120362e38352d342e3036352031302e3038312d352e393031632e3636382d2e33383720312e3432362d2e353920322e3139372d2e353973312e3532392e32303420322e3139372e35396c372e38383420342e353961342e353220342e353220302030203120312e35383920312e363136632e3338342e3636352e35393420312e3431382e36303820322e31383776392e333131632e3031332e3737352d2e31383520312e3533382d2e35373220322e32303861342e323520342e32352030203020312d312e36323520312e3539356c2d372e38383420342e373231632d2e3636382e3338372d312e3432362e35392d322e3139372e3539732d312e3532392d2e3230342d322e3139372d2e35396c2d372e3838342d342e353961342e353220342e35322030203020312d312e3538392d312e363136632d2e3338352d2e3636352d2e3539342d312e3431382d2e3630382d322e313837762d362e3033326c2d362e383520342e30363576362e303332632d2e3031332e3737352e31383520312e3533382e35373220322e32303861342e323520342e323520302030203020312e36323520312e3539356c31342e38363420382e363535632e3636382e33383720312e3432362e353920322e3139372e353973312e3532392d2e32303420322e3139372d2e35396c31342e3836342d382e363535632e3635372d2e33393420312e3230342d2e393520312e3538392d312e363136732e3539342d312e3431382e3630392d322e3138375635352e353338632e3031332d2e3737352d2e3138352d312e3533382d2e3537322d322e32303861342e323520342e32352030203020302d312e3632352d312e3539356c2d31342e3939332d382e3738367a222066696c6c3d2223666666222f3e3c646566733e3c6c696e6561724772616469656e742069643d2242222078313d2230222079313d2230222078323d22323730222079323d2232373022206772616469656e74556e6974733d227573657253706163654f6e557365223e3c73746f702073746f702d636f6c6f723d2223636235656565222f3e3c73746f70206f66667365743d2231222073746f702d636f6c6f723d2223306364376534222073746f702d6f7061636974793d222e3939222f3e3c2f6c696e6561724772616469656e743e3c2f646566733e3c7465787420783d2233322e352220793d223233312220666f6e742d73697a653d223237222066696c6c3d2223666666222066696c7465723d2275726c282341292220666f6e742d66616d696c793d22506c7573204a616b617274612053616e732c44656a6156752053616e732c4e6f746f20436f6c6f7220456d6f6a692c4170706c6520436f6c6f7220456d6f6a692c73616e732d73657269662220666f6e742d7765696768743d22626f6c64223e",
  "linkReferences": {},
  "deployedLinkReferences": {}
}